:03000000020100FA
:1001000078FFE4F6D8FD9000007F007E04E4F0A3C1
:0A011000DFFCDEFA758120020155C4
:10019A0012040D43CF10E470FD7408B4090050F640
:1001AA009001B1F82828730201CC0201D10201D6CC
:1001BA000201DB0201E00201E50201EA0201EF02AB
:1001CA0001F412049780CF12049C80CA1201FF80A6
:1001DA00C51204A180C01204AB80BB12044A80B6C7
:1001EA0012045780B112025D80ACE4FD7FFF7E1FCE
:0501FA001202FB80A1D0
:10040D00E4F59A759BFFF591F59275A1FFF5A22282
:0504970012047080FE5C
:0904700075CE80D2AF43A904222D
:03004B0002046448
:0C046400C0E0E5CE20E602B2A7D0E032F6
:0303DF0001120008
:05049C0012038C80FE3C
:10038C005391FC43920353A17F43A28075BA03E4BB
:0D039C00F5BCF5BB75BD0843A805D2AF2226
:0300030002041DD7
:0F041D00B2A520900375121020910375122032A2
:030013000204B034
:0304B000B2A632BF
:1001FF0043A11F53A2E043A01F7FFE12048B1203E3
:10020F004A7FFD12048B12034A7FFB12048B1203E9
:10021F004A7FF712048B12034A7FEF12048B1203EB
:10022F004A53A0E07FFE12048B12034A7FFD120493
:10023F008B12034A7FFB12048B12034A7FF71204BF
:0E024F008B12034A7FEF12048B12034A80A821
:06048B008FA3438F0C2239
:04034A007F647E004E
:10034E00E4FDFCD3EF9400EE94004007EF1F70F332
:0E035E001E80F00DBD00010CED64644C70E5D6
:01036C00226E
:0504A1001202C980FEFB
:1002C900758E07758911758A20758CD1C28CD2A952
:1002D900D28C758B40758DA2C28ED2ABD28EE4F5CD
:1002E900C9F5C875CB4475CA80C2CAD2ADD2CAD2C3
:0202F900AF2232
:03000B0002047973
:09047900758A20758CD1B2A53200
:03001B000204825A
:09048200758B40758DA2B2A63203
:03002B000204A626
:0504A600C2CFB2A73235
:0504AB001203A980FE10
:1003A90075D23A75D33BE4F5D175D51E75D60F755F
:0D03B900D70AF5D443D28043A902D2AF2267
:030043000204B301
:0304B300B2A032C2
:0403E200C101C10094
:0D044A0012036D7599553001FDC20180F659
:10036D0053919F439260438780759850E4F5C8750B
:0F037D008E03758920758DF6D28ED2ACD2AF2249
:0300230002042CA8
:0F042C00309904C299D201309804C298D200329C
:0603E60002100000C1023C
:10025D007F047E0012029543AD403002FDC202AF15
:10026D00AF7510008F11E5AEC4540FFD7C00E51184
:10027D00C4F8540FC868FFE510C454F048FEEF2DC4
:08028D00F511EC3EF51080CFE5
:10029500EF4480F5ADC3EF9408EE9400500F740160
:1002A500A807088002C333D8FCF5AB8011EF24F80A
:1002B500FF7401A807088002C333D8FCF5AC43A836
:0402C50040D2AF2252
:0300330002049133
:0604910053ADEFD2023270
:0703EC00020E0000010D00EC
:1002FB008E088F098D0AAB0A7D55120323AD0AAF09
:10030B0009AE081203C68F0DE4F5F4E50DB45504E0
:08031B00B2A080F7B2A180F34B
:100323008E0B8F0CC2AF8DF5E50B547FF5F3850C67
:10033300F28BF475F1F075F6060000000000000082
:0703430000E4F5F4D2AF2243
:1003C600C2AF8DF4E50F2FF582E50E3EF583E4937B
:0803D600FCE4F5F4D2AFAF0422
:0103DE0022FC
:0203F300C10344
:0D04570012043B759FAA3003FDC20380F61E
:0F043B00759D3F759E01439D8043A901D2AF225D
:03003B000203F6C7
:1003F600C0E0E59E30E303539EF7E59E30E70553E4
:070406009E7FD203D0E0321B
:10011A0002019AE493A3F8E493A34003F68001F260
:10012A0008DFF48029E493A3F85407240CC8C333E6
:10013A00C4540F4420C8834004F456800146F6DFB5
:10014A00E4800B01020408102040809003DFE47E63
:10015A00019360BCA3FF543F30E509541FFEE493AA
:10016A00A360010ECF54C025E060A840B8E493A371
:10017A00FAE493A3F8E493A3C8C582C8CAC583CA9C
:10018A00F0A3C8C582C8CAC583CADFE9DEE780BE54
:0103F5000007
:00000001FF
