:03000000020241B8
:1002410078FFE4F6D8FD9000007F007E07E4F0A37C
:0A025100DFFCDEFA7581260202963A
:1002DB0012060943CF1075EF01000000000000006B
:1002EB0000E470567402B40B00504F9002FDF828D6
:1002FB00287302031E0203210203240203270203B5
:10030B002A02032D02033002033302033602033F9A
:10031B000203420207C40207C90207CE0207D80232
:10032B0007DD0206C60206AB020633E4FD7FFF7E45
:0B033B001F02065C02034612072E2280
:1003460053EFBF7D557CAA7FAA7E551205B07F72FA
:100356007E557DFF7C38AB0FAA0EA90DA80CC312E3
:10036600021D7002C282751AAA751B557F007E5542
:100376007DAA7CFF1204527F407E807D017C00AB0B
:100386000BAA0AA909A808C312021D70B3E515B481
:0B039600C0AEE514B43FA9D28280A5E0
:0605810002240000C10687
:100633007F047E0012051943AD403006FDC206AFAC
:10064300AFEF75F010A4FFAEF0E5AEC4540F7C001D
:090653002FF525EC3EF52480DEB4
:10051900EF4480F5ADC3EF9408EE9400500F7401D9
:10052900A807088002C333D8FCF5AB8011EF24F883
:10053900FF7401A807088002C333D8FCF5AC43A8AF
:0405490040D2AF22CB
:030033000207BE03
:0607BE0053ADDFD206324C
:0507C4001207AC80FEED
:0907AC0075CE84D2AF43A90422EA
:03004B000207A009
:0C07A000C0E0E5CE20E602B282D0E032DC
:030587000126004A
:0507C9001205DD80FEB9
:1005DD00539A7F439B805391CF43923053A1FC4359
:1005ED00A203E4F5BA75BC3075C60375BB80F5BDC5
:0C05FD0075C70343A80543A908D2AF222C
:030003000207E60B
:0307E600B28232AA
:030013000207667B
:0F076600B2832094037526102095037526203248
:030053000207E9B8
:0307E900B28432A5
:07058A000222000001210024
:10065C008E168F178D18AB187DFF120684AD18AF50
:10066C0017AE161206FC8F21E4F5F4E521B4FF0455
:08067C00B28280F7B28380F323
:100684008E198F1AC2AF8DF5E519547FF5F3851ACB
:10069400F28BF475F1F075F606000000000000001E
:0706A40000E4F5F4D2AF22DF
:1006FC00C2AF8DF4E5232FF582E5223EF583E4931A
:08070C00FCE4F5F4D2AFAF04E8
:0107140022C2
:10060900759AFFE4F59BF591F592F5A175A2FF7531
:10061900B1FFF5B275C1FF75C201439A034391F168
:0A06290043A1C043C1F175D9FF22BF
:08059100C101C100C102C10358
:1006AB00E4751B80751A25F519F5187F10FE1203DA
:0B06BB00FB759FAA3001FDC20180F614
:1003FB008E168F175391F543920A438FC0759D50FC
:10040B00AE16AF17E4FCFD7B407A42790FF8120170
:10041B0000AB1BAA1AA919A81812018B8F9EAE1636
:10042B00AF17E4FCFD7B407A42790FF8120100AB69
:10043B001BAA1AA919A81812018B780812022E8F61
:07044B009543A901D2AF2285
:0F077500438F80759D80759E0143A901D2AF22ED
:10074200438F40759D2F759E01439D8043A901D221
:02075200AF22D4
:03003B00020715A4
:10071500C0E0E59D30E105539DFDD201E59D30E04A
:0907250005539DFED200D0E03224
:0507CE0012054D80FE44
:10054D00758E07438901758A80758CC1C28CD2A9BD
:10055D00D28C438920758B60758D60C28ED2ABD2E3
:10056D008EE4F5C9F5C875CB83F5CAC2CAD2ADD232
:04057D00CAD2AF220D
:03000B000207B534
:0907B500758A80758CC1B2823294
:03001B000207ECED
:0307EC00B28332A3
:03002B000207D3F6
:0507D300C2CFB2843228
:04059900C104C105D3
:1006C600E4751B80751A25F519F5187F10FE1203BF
:0B06D600A17599553004FDC20480F6A8
:1003A1008E168F17539AF3439B0C439850438E023A
:1003B100AE16AF17E4FCFD7B407A42790FF81201CB
:1003C10000AB1BAA1AA919A81812018B78081202EE
:1003D1002E8F8DAE16AF17E4FCFD7B407A42790F6C
:1003E100F8120100AB1BAA1AA919A81812018B8FC8
:0A03F1008BC28EC2ABD2ACD2AF2299
:030023000207844D
:0F078400309904C299D204309804C298D2053239
:0507D8001204A280FEE6
:1004A2007593B0120793438F04E4FF7E0890000017
:1004B20074FFF0A3DEFCE4FEFF74002FF5827400EB
:1004C2003EF583E0FD74002FF58274073EF583ED5F
:0C04D200F00FBF00010EEF64084E70DD5B
:0104DE0022FB
:1004DF007593F0120793E4FF7E0890000074FFF00D
:1004EF00A3DEFCE4FEFF74002FF58274003EF5835B
:1004FF00E0FD74002FF58274073EF583EDF00FBF1A
:09050F0000010EEF64084E70DDDE
:0105180022C0
:0D079300759CFC75940E75A33F75B3FF2295
:0507DD001206E180FEA0
:1006E10075D37F75D48C90001E7486F0A37440F08E
:0B06F1009007427486F0A37440F022D2
:10059D00040C00000000040800000000021400001C
:1005B0008FE98EEA8DED8CEE43EF80E5EF20E7FBCF
:1005C00085E91385EA1285EB1185EC10AF13AE12A5
:0D05D000AD11AC108F0F8E0E8D0D8C0C2216
:100452008F1F8E1E8D1D8C1C851FE9851EEA851D32
:10046200EB851CEC851BEDE51AF5EE43EFC0E5EFDD
:1004720020E7FB85E91385EA1285EB1185EC10AFC5
:10048200EEEFFEADED7C00E42DF515EC3EF514AF7C
:0F04920013AE12AD11AC108F0B8E0A8D098C08B2
:0104A1002238
:0205AD00C10784
:10072E007D017F01120754E5B730E504D20780F74B
:04073E00C20780F37B
:1007540075B780ED42B775B640EF42B643A920D2D3
:02076400AF22C2
:030063000207E2AF
:0407E20053B7BF3218
:10025B000202DBE493A3F8E493A34003F68001F2DC
:10026B0008DFF48029E493A3F85407240CC8C333A4
:10027B00C4540F4420C8834004F456800146F6DF73
:10028B00E4800B0102040810204080900581E47E7D
:10029B00019360BCA3FF543F30E509541FFEE49368
:1002AB00A360010ECF54C025E060A840B8E493A32F
:1002BB00FAE493A3F8E493A3C8C582C8CAC583CA5A
:1002CB00F0A3C8C582C8CAC583CADFE9DEE780BE12
:0105AF00004B
:10010000E88FF0A4CC8BF0A42CFCE98EF0A42CFC9E
:100110008AF0EDA42CFCEA8EF0A4CDA8F08BF0A41C
:100120002DCC3825F0FDE98FF0A42CCD35F0FCEB7B
:100130008EF0A4FEA9F0EB8FF0A4CFC5F02ECD3940
:0F014000FEE43CFCEAA42DCE35F0FDE43CFC22AD
:10014F0075F008758200EF2FFFEE33FECD33CDCC67
:10015F0033CCC58233C5829BED9AEC99E5829840EA
:10016F000CF582EE9BFEED9AFDEC99FC0FD5F0D6C7
:10017F00E4CEFBE4CDFAE4CCF9A88222B800C1B9F1
:10018F000059BA002DEC8BF084CFCECDFCE5F0CB2F
:10019F00F97818EF2FFFEE33FEED33FDEC33FCEB68
:1001AF0033FB10D703994004EB99FB0FD8E5E4F923
:1001BF00FA227818EF2FFFEE33FEED33FDEC33FC10
:1001CF00C933C910D7059BE99A4007EC9BFCE99A04
:1001DF00F90FD8E0E4C9FAE4CCFB2275F010EF2F49
:1001EF00FFEE33FEED33FDCC33CCC833C810D70749
:1001FF009BEC9AE899400AED9BFDEC9AFCE899F884
:0E020F000FD5F0DAE4CDFBE4CCFAE4C8F92216
:10021D00EB9FF5F0EA9E42F0E99D42F0E89C45F037
:01022D0022AE
:10022E00E8600FECC313FCED13FDEE13FEEF13FFAE
:03023E00D8F122D2
:00000001FF
