:03000000020241B8
:1002410078FFE4F6D8FD9000007F007E07E4F0A37C
:0A025100DFFCDEFA7581260202963A
:1002DB001206B043CF1075EF0100000000000000C4
:1002EB0000E470507406B40A0050499002FDF828DF
:1002FB00287302031B02031E0203210203240203C1
:10030B002702032A02032D02033002033302033CAC
:10031B0002079D0207A20207A70203A00207B10270
:10032B0006E70206CC0205C47D027F7F7E00020633
:05033B00181203FE2270
:1003FE0053EFBF7D557CAA7FAA7E551205977F725B
:10040E007E557DFF7C38AB0FAA0EA90DA80CC3122A
:10041E00021D7002C2A0751AAA751B557F007E556B
:10042E007DAA7CFF1204B07F407E807D017C00ABF4
:10043E000BAA0AA909A808C312021D70B3E515B4C8
:0B044E00C0AEE514B43FA9D2A080A509
:06056A0002240000C1069E
:1005C4007D047F037E0012050043AD403006FDC26A
:1005D40006AFAFEF75F010A4FFAEF0E5AEC4540F54
:0B05E4007C002FF525EC3EF52480DEA6
:10050000EF4480F5ADC3EF9408EE9400500F7401F2
:10051000A807088002C333D8FCF5AB8011EF24F89C
:10052000FF7401A807088002C333D8FCF5AC8DAA7C
:0605300043A840D2AF22F7
:0300330002079130
:0607910053ADDFD2063279
:05079D0012077F80FE41
:09077F0075CE85D2AF43A9042216
:03004B0002077336
:0C077300C0E0E5CE20E602B2A0D0E032EB
:0305700001260061
:0507A20012066780FE55
:100667005391374392C853A1FC43A203E4F5BA75EB
:10067700BC0C75C63075BB08F5BD75C73043A805FA
:0606870043A908D2AF22D6
:030003000207B63B
:0307B600B2A432B8
:030013000207469B
:0F074600B2A52096037526102097037526203242
:030053000207B9E8
:0307B900B2A632B3
:07057300022200000121003B
:100618008E168F178D18AB187DFF120640AD18AFD8
:1006280017AE161207028F21E4F5F4E521B4FF0492
:08063800B2A080F7B2A180F32B
:100640008E198F1AC2AF8DF5E519547FF5F3851A0F
:10065000F28BF475F1F075F6060000000000000062
:0706600000E4F5F4D2AF2223
:10070200C2AF8DF4E5232FF582E5223EF583E49313
:08071200FCE4F5F4D2AFAF04E2
:01071A0022BC
:1006B000E4F59AF59BF5917592FF75A1FFF5A243BC
:0C06C0009ADC4391C043A18C43D9032273
:08057A00C101C100C102C1036F
:1006CC00E4751B80751A25F519F5187F10FE1204B8
:0B06DC0059759F163001FDC20180F629
:100459008E168F1753A1FC43A203438FC0759D507D
:10046900AE16AF17E4FCFD7B407A42790FF8120112
:1004790000AB1BAA1AA919A81812018B8F9EAE16D8
:10048900AF17E4FCFD7B407A42790FF8120100AB0B
:100499001BAA1AA919A81812018B780812022E8F03
:0704A9009543A901D2AF2227
:0F075500438F80759D80759E0143A901D2AF220D
:10073400438F40759D2F759E01439D8043A901D22F
:02074400AF22E2
:03003B0002071B9E
:10071B00C0E0E59D30E105539DFDD201E59D30E044
:09072B0005539DFED200D0E0321E
:0507A70012053680FE82
:10053600758E07438901758A80758CC1C28CD2A9D4
:10054600D28C438920758B60758D60C28ED2ABD2FA
:100556008EE4F5C9F5C875CB83F5CAC2CAD2ADD249
:04056600CAD2AF2224
:03000B0002078861
:09078800758A80758CC1B2A4329F
:03001B000207BC1D
:0307BC00B2A532B1
:03002B000207AC1D
:0507AC00C2CFB2A6322D
:04058200C104C105EA
:1006E700E4751B80751A25F519F5187F10FE12039E
:0B06F700407599553004FDC20480F6E8
:100340008E168F175391F343920C439850438E02AD
:10035000438920438780AE16AF17E4FCFD7B407ACB
:1003600042790FF8120100AB1BAA1AA919A818129A
:10037000018B780812022E8F8DAE16AF17E4FCFDAC
:100380007B407A42790FF8120100AB1BAA1AA91917
:10039000A81812018B8F8BC28EC2ABD2ACD2AF2207
:030023000207646D
:0F076400309904C299D204309804C298D2053259
:1003A000439A1F539BE043801F7FFE12079712065C
:1003B0008D7FFD12079712068D7FFB12079712069D
:1003C0008D7FF712079712068D7FEF12079712069F
:1003D0008D5380E07FFE12079712068D7FFD120776
:1003E0009712068D7FFB12079712068D7FF7120773
:0E03F0009712068D7FEF12079712068D80A8D8
:060797008F9C438F0C2231
:04068D007F647E0008
:10069100E4FDFCD3EF9400EE94004007EF1F70F3EC
:0E06A1001E80F00DBD00010CED64644C70E590
:0106AF002228
:0507B1001205EF80FEBF
:1005EF00E4F5D175D23F75D4EA75D34F75D528751B
:1005FF00D62875D728F5DC75DD1475DE1475DF1474
:09060F0043D28043A902D2AF22BC
:030043000207BFF2
:0307BF00B28032D3
:10058600040C000000000408000000000214000033
:100597008FE98EEA8DED8CEE43EF80E5EF20E7FBE8
:1005A70085E91385EA1285EB1185EC10AF13AE12BE
:0D05B700AD11AC108F0F8E0E8D0D8C0C222F
:1004B0008F1F8E1E8D1D8C1C851FE9851EEA851DD4
:1004C000EB851CEC851BEDE51AF5EE43EFC0E5EF7F
:1004D00020E7FB85E91385EA1285EB1185EC10AF67
:1004E000EEEFFEADED7C00E42DF515EC3EF514AF1E
:0F04F00013AE12AD11AC108F0B8E0A8D098C0854
:0104FF0022DA
:10025B000202DBE493A3F8E493A34003F68001F2DC
:10026B0008DFF48029E493A3F85407240CC8C333A4
:10027B00C4540F4420C8834004F456800146F6DF73
:10028B00E4800B010204081020408090056AE47E94
:10029B00019360BCA3FF543F30E509541FFEE49368
:1002AB00A360010ECF54C025E060A840B8E493A32F
:1002BB00FAE493A3F8E493A3C8C582C8CAC583CA5A
:1002CB00F0A3C8C582C8CAC583CADFE9DEE780BE12
:010596000064
:10010000E88FF0A4CC8BF0A42CFCE98EF0A42CFC9E
:100110008AF0EDA42CFCEA8EF0A4CDA8F08BF0A41C
:100120002DCC3825F0FDE98FF0A42CCD35F0FCEB7B
:100130008EF0A4FEA9F0EB8FF0A4CFC5F02ECD3940
:0F014000FEE43CFCEAA42DCE35F0FDE43CFC22AD
:10014F0075F008758200EF2FFFEE33FECD33CDCC67
:10015F0033CCC58233C5829BED9AEC99E5829840EA
:10016F000CF582EE9BFEED9AFDEC99FC0FD5F0D6C7
:10017F00E4CEFBE4CDFAE4CCF9A88222B800C1B9F1
:10018F000059BA002DEC8BF084CFCECDFCE5F0CB2F
:10019F00F97818EF2FFFEE33FEED33FDEC33FCEB68
:1001AF0033FB10D703994004EB99FB0FD8E5E4F923
:1001BF00FA227818EF2FFFEE33FEED33FDEC33FC10
:1001CF00C933C910D7059BE99A4007EC9BFCE99A04
:1001DF00F90FD8E0E4C9FAE4CCFB2275F010EF2F49
:1001EF00FFEE33FEED33FDCC33CCC833C810D70749
:1001FF009BEC9AE899400AED9BFDEC9AFCE899F884
:0E020F000FD5F0DAE4CDFBE4CCFAE4C8F92216
:10021D00EB9FF5F0EA9E42F0E99D42F0E89C45F037
:01022D0022AE
:10022E00E8600FECC313FCED13FDEE13FEEF13FFAE
:03023E00D8F122D2
:00000001FF
