:10076F00C0F92470595242F840504843C661464E72
:10070D00E4F59175925575A2AA75B1AA75B255F514
:07071D0090F5A075B0FF226A
:10073900758E01758902758A38758C38C28CD2A973
:03074900D28C222D
:10074C00758E03758922758B38758D38C28ED2AB38
:03075C00D28E2218
:0A078B0075B401E4F5B57593022280
:0A079500E4F5C475B60175C56022D5
:10075F0075F80575FC0775F9FF75FB8075FA802232
:05079F00D2FFC2AD22F3
:10066500E4F510F50FF50EF50DF51343C588E5C551
:1006750030E4FB85C61185C71253C5EF53C57FE529
:100685001275F040A4FDE51145F0F50BEDF50CAE46
:100695000B7806CEC313CE13D8F9F50C8E0BAB1021
:1006A500AA0FA90EA80DC000C001C002C003AC0B63
:1006B500FDE412059DD003D002D001D0001204073D
:1006C5008F108E0F8D0E8C0D0513E513B40A9CE467
:1006D500FBFA79207841AF10AE0FAD0EAC0D1204C8
:0806E500FB1205D68E088F09F7
:0106ED0022EA
:03000B00020724C5
:10072400C0E0C0D0050AE50AB46405750A00D20029
:05073400D0D0D0E0323E
:03001B000207A435
:0107A4003222
:03002B000207A524
:0107A5003221
:030033000207A61B
:0107A6003220
:03003B000207A712
:0107A700321F
:030043000207A809
:0107A800321E
:03004B000207A900
:0107A900321D
:030053000207AAF7
:0107AA00321C
:03005B000207ABEE
:0107AB00321B
:030063000207ACE5
:0107AC00321A
:03006B000207ADDC
:0107AD003219
:030073000207AED3
:0107AE003218
:1006EE0075F60B75C19012070D1207391207951288
:0F06FE00075FD2AF12079F75C19012066580F893
:10040000020642E86480F8E933E83360110460F0E2
:10041000ED33EC337009E8FCE9FDEAFEEBFF220462
:1004200060DED3EB9FEA9EE99DE8C2E78CF0C2F75D
:1004300095F0400CE8CCF8E9CDF9EACEFAEBCFFB29
:1004400012060D85D0F05804700320D5B3E804706F
:10045000075002B2D502064C92D5EC0460F7E4CC0A
:10046000C0E0C398F8603B94186008400DD0E0FBF2
:10047000020624E4FBFAC9FC8028E830E406E4C95B
:10048000FBE4CAFCE830E305E4C9CACBFCE8540746
:100490006010F8C3E913F9EA13FAEB13FBEC13FC51
:1004A000D8F130F52FC3E49CFCEF9BFFEE9AFEEDF4
:1004B00099FDD0E0FBEF4E4D4C701222DB0302069B
:1004C00049EC2CFCEF33FFEE33FEED33FDED30E76E
:1004D000EB020624EF2BFFEE3AFEED39FDD0E0FBF8
:1004E00050130BBB000302064CED13FDEE13FEEFA1
:0804F00013FFEC13FC020624CB
:1004F80002064CEC5D046005E859047003020642EC
:1005080012060D580460F6EC4860F2EC7004FDFE2B
:10051800FF22C860DB2481C85009C39860025006D6
:100528000206499850CAF582E9294B4A7005AB8200
:1005380002063875F0007C1A7880C3EF9BEE9AEDBE
:1005480099400DC3EF9BFFEE9AFEED99FDE842F04E
:10055800DC23ACF0D0E0FFD0E0FED0E0FDAB8220A1
:10056800E7101BEB60BAEC2CFCEF33FFEE33FEED2B
:1005780033FD020624E803F830E705C0F075F00003
:10058800EF2FFFEE33FEED33FD40B830E7C280AA0F
:1005980075F020800E75F010800575F0087D007EDE
:1005A800007F003392D530D503120657EC33401044
:1005B800EF33FFEE33FEED33FDEC33FCD5F0ED22E7
:0E05C800E5F0247EA2D513CC92E7CDCEFF2223
:1005D600EDD2E7CD33EC3392D524814006E4FFFE1D
:1005E600FDFC22FCE4CFCECDCC24E0501174FF807C
:1005F600EDC3CC13CCCD13CDCE13CECF13CF047019
:07060600F030D5DE020657BB
:10060D00E9D2E7C933E833F892D5EDD2E7CD33EC33
:07061D0033FC5002B2D522AC
:10062400EC30E7100FBF000C0EBE00080DBD000437
:100634000BEB6014A2D5EB13FCED92E7FD2274FFE3
:10064400FCFDFEFF22E480F8A2D574FF13FC7D803C
:03065400E480EF50
:0300000002077F75
:0C077F00787FE4F6D8FD7581200206EEBC
:0E065700C3E49FFFE49EFEE49DFDE49CFC22B4
:00000001FF
