:03000000020100FA
:0C010000787FE4F6D8FD75810B02014702
:0D01C90053910F4390C0E4F5D443D480223D
:0901F80075D50130D8FDC2D822F2
:09020100E4F5D530DBFDC2DB227F
:0B01E2008FD675D50230DAFDC2DA229C
:0B01ED0075D50330D9FDC2D9AFD72271
:04021000A2DFB32294
:0402140053D4FE229F
:0402180043D40122A8
:05020A000308000000E4
:0C01D600EF4E6007EF1F70F81E80F5224E
:10018C00E4F50BF50BE50BB4020512021880031213
:10019C0002141201ED7408250BF8A607050BE50BEC
:0F01AC00C3940340E01202017F327E000201D6AD
:0E01BB0075F6201201C91201F812018C80F8AD
:10010C000201BBE493A3F8E493A34003F68001F24D
:10011C0008DFF48029E493A3F85407240CC8C333F4
:10012C00C4540F4420C8834004F456800146F6DFC3
:10013C00E4800B010204081020408090020AE47E47
:10014C00019360BCA3FF543F30E509541FFEE493B8
:10015C00A360010ECF54C025E060A840B8E493A37F
:10016C00FAE493A3F8E493A3C8C582C8CAC583CAAA
:10017C00F0A3C8C582C8CAC583CADFE9DEE780BE62
:01020F0000EE
:00000001FF
