:0300000002026E8B
:10026E0078FFE4F6D8FD9000007FFF7E10E4F0A347
:0A027E00DFFCDEFA7581530202C3B3
:10037A001207C0E470667402B40E00505F90038ED8
:10038A00F82828730203B80203BB0203BE0203C1A2
:10039A000203C40203C70203CA0203CD0203D00246
:1003AA0003D30203D60203DD0203E00203E3020BD6
:1003BA0007020B0C020B11020B16020B1B02093A65
:1003CA000209550207EF02081D0208A27FFF7E1FDD
:0D03DA000208F40205740209B9120ACD22CE
:100574007D557CAA7FAA7E551207907F727E557D99
:10058400FF7C38AB2AAA29A928A827C312024A70DB
:1005940002C2847535AA7536557F007E557DAA7CC6
:1005A400FF1206D17F407E807D017C00AB26AA2508
:1005B400A924A823C312024A70B6E530B4C0B1E539
:0805C4002FB43FACD28480A8E3
:1007C000759AFFE4F59BF591F592F5A175A2FF7579
:1007D000B1FFF5B275C1FF75C20175D9FFF5DA43F6
:0F07E0009A0F4391F043B1F043C1C043D9302287
:100A2B00D3EF9400EE94004007EF1F70F31E80F09D
:010A3B002298
:050B0700120AD980FE76
:090AD90075FB84D2AF43A904228D
:03004B00020AC1E5
:0C0AC100C0E0E5FB20E602B285D0E03288
:0304500001530055
:050B0C0012084B80FE01
:10084B00539A7F439B8053C1FC43C20353A1FC4388
:10085B00A203E4F5B475BC0375BE0375BB80F5BD8F
:0C086B0075BF0343A80543A908D2AF22C3
:03000300020B20CD
:030B2000B284326A
:03001300020A3CA2
:0F0A3C00B28520C00375531020C10375532032BB
:03005300020B237A
:030B2300B2863265
:0F045300023C0000023E000002400000013B009E
:050B11001203E780FE65
:1003E700758E07438901758A80758CC1C28CD2A925
:1003F700D28C438920758B60758D60C28ED2ABD24B
:100407008E75CE0275C80975C980E4F5CDF5CCF5B2
:10041700CBF5CAD2ADD2CA75CE0375C980F5C875FA
:10042700CBC175CA80C2CA43A94043B940D2CA7575
:10043700CE0475C980F5C875CB83F5CAC2CA43A96E
:090447008043B980D2CAD2AF2271
:03000B00020AE204
:090AE200758A80758CC1B2823264
:03001B00020B26AF
:030B2600B2833265
:03002B00020308C5
:10030800C0E0C0D075D000C004C005C006C00775E5
:10031800CE02E5C830E64EB28753C8BF053BE53B81
:10032800C3940C4009753B0075CD0075CC00E53BC6
:10033800B40A10AFCBEFFEADCA7C00E42DF53FEC5C
:100348003EF53EE53BB40B1DAFCBEFFEADCA7C00DE
:10035800E42DF541EC3EF540C3E541953FF53DE51B
:1003680040953EF53CD007D006D005D004D0D0D07B
:02037800E03271
:03006B00020AEB9B
:080AEB0075CE03C2CFB28532C3
:03007300020AF38B
:080AF30075CE04C2CFB28632B9
:050B16001209A280FE9F
:1009A20075938F120AB4438F04E4FF7E08901000FF
:0609B20074FFF0A3DEFC5F
:0109B800221C
:1009CF007593C0120AB4E4FF7E0890100074FFF014
:0309DF00A3DEFC98
:0109E20022F2
:0D0AB400759CFF7594FF75A3FF75B3FF22BD
:10046200042700000000042300000000022F000007
:1007900053EFBF8FE98EEA8DED8CEE43EF80E5EFEE
:1007A00020E7FB85E92E85EA2D85EB2C85EC2BAF28
:1007B0002EAE2DAD2CAC2B8F2A8E298D288C272286
:1006D1008F3A8E398D388C3753EFBF43EF40853ACF
:1006E100E98539EA8538EB8537EC8536EDE535F571
:1006F100EE43EFC0E5EF20E7FB85E92E85EA2D8586
:10070100EB2C85EC2BAFEEEFFEADED7C00E42DF58F
:1007110030EC3EF52FAF2EAE2DAD2CAC2B8F268EAF
:05072100258D248C234E
:0107260022B0
:0604720002510000C10E62
:1008A2007F047E0012075C43AD40300EFDC20EAFE6
:1008B200AFEF75F010A4FFAEF0E5AEC4540F7C00AC
:0908C2002FF552EC3EF55180DEE9
:10075C00EF4480F5ADC3EF9408EE9400500F740194
:10076C00A807088002C333D8FCF5AB8011EF24F83E
:10077C00FF7401A807088002C333D8FCF5AC43A86A
:04078C0040D2AF2286
:03003300020AFBC3
:060AFB0053ADDFD20E3204
:04047800C10CC10DE5
:10093A00E4753680753525F534F5337F20FE1205CA
:0B094A001A759955300CFDC20C80F6A8
:10051A008E318F3253A1FC43A203439850438E027B
:10052A00AE31AF32E4FCFD7B407A42790FF812011A
:10053A002DAB36AA35A934A8331201B878081202AD
:10054A005B8F8DAE31AF32E4FCFD7B407A42790F8E
:10055A00F812012DAB36AA35A934A8331201B88F87
:0A056A008BC28EC2ABD2ACD2AF221E
:03002300020A4B83
:0F0A4B00309904C299D20C309804C298D20D325F
:07047C00024F0000014E00D9
:1008F4008E318F321208CB7DFFAF32AE31120877C2
:10090400AF32AE3112091A8F4EE54EB4FF04B282F3
:0609140080F7B28380F3BE
:04087700AB07AA061B
:10087B00A2AF9210C2AFE4F5F48DF58AF38BF2754B
:10088B00F1F075F61043F6020000000000000000C6
:06089B00F5F4A21092AF7B
:0108A1002234
:0408CB00AD07AC06C3
:1008CF00A2AF9210C2AFE4F5F48CF38DF275F1F094
:1008DF0075F62043F6020000000000000000F5F45A
:0408EF00A21092AF12
:0108F30022E2
:10091A00E4A2AF9210C2AFF5F4E5502FF582E54F8D
:0F092A003EF583E493FDE4F5F4A21092AFAF0520
:01093900229B
:10048300100800112233445566778899AABBCCDD46
:08049300EEFF04180000000058
:0C0ACD001207277B007A0079080204B6AB
:10072700A2AF9210C2AF43EF01000000000000002B
:1007370000E4F5FC85FD1F85FD1E85FD1D85FD1C5F
:10074700AF1FAE1EAD1DAC1C8F1B8E1A8D198C18DA
:04075700A21092AFAB
:01075B00227B
:0604B6008B318A3289330C
:1004BC00E4FFFEA2AF9210C2AF43EF0200000000B7
:1004CC00000000000000AB31AA32A9338F828E836A
:1004DC00120100F5FD000000000000000000000FFC
:1004EC00BF00010EEF64104E70DCE4F5FC85FD1FBF
:1004FC0085FD1E85FD1D85FD1CAF1FAE1EAD1DAC03
:0D050C001C8F1B8E1A8D198C18A21092AF37
:0105190022BF
:02049B00C10F8F
:1009B9007D087F011209E3B284E5B730E504D20F5F
:0609C90080F5C20F80F171
:1009E30075B780ED42B775B604EF42B643A920D27E
:0209F300AF2231
:03006300020B018C
:060B010053B7BFB28532BC
:08049D00C103C100C101C1024D
:10095500E4753680753525F534F5337F20FE1205AF
:0B096500CC759FAA3003FDC20380F692
:1005CC008E318F32539ACF439B30438F3075955079
:1005DC00AE31AF32E4FCFD7B407A42790FF8120168
:1005EC002DAB36AA35A934A8331201B88F9DAE3184
:1005FC00AF32E4FCFD7B407A42790FF812012DAB4F
:10060C0036AA35A934A8331201B8780812025B8FC8
:07061C009E43A901D2AF22A9
:0F0A5A00438F20759580759D0543A901D2AF226A
:1009F500438F1075953F759D0143958043A901D29D
:020A0500AF221E
:03003B0002097047
:10097000C0E0E59530E1055395FDD203E59530E003
:09098000055395FED200D0E032CF
:0804A500C107C104C105C10635
:1007EF00120A6943A5203006FDC20675A710300610
:1007FF00FDC20675A7553006FDC2067F647E001246
:0E080F000A2B43A5107F647E00120A2B80D5B1
:100623008E428F435391F543920A438FC075A45072
:10063300AE42AF43E4FCFD7B407A42790FF81201EE
:100643002DAB47AA46A945A8441201B88FA5AE42CF
:10065300AF43E4FCFD7B407A42790FF812012DABE6
:1006630047AA46A945A8441201B8780812025B8F2D
:07067300A643AA01D2AF2249
:0F0A6900438F8075A48075A50543AA01D2AF22E3
:100A0700438F4075A43F75A50143A48043AA01D233
:020A1700AF220C
:03007B00020A78FE
:0F0A7800C0E0E5A430E60553A4BFD206D0E032BB
:0804AD00C10BC108C109C10A1D
:10081D00120A8743C520300AFDC20A75C710300A77
:10082D00FDC20A75C755300AFDC20A7F647E0012EB
:0E083D000A2B43C5107F647E00120A2B80D563
:10067A008E488F4953C1CF43C230438EC075C45090
:10068A00AE48AF49E4FCFD7B407A42790FF812018B
:10069A002DAB4DAA4CA94BA84A1201B88FC5AE483A
:1006AA00AF49E4FCFD7B407A42790FF812012DAB89
:1006BA004DAA4CA94BA84A1201B8780812025B8FBE
:0706CA00C643AA02D2AF22D1
:0F0A8700438E8075C48075C50543AA02D2AF2285
:100A1900438E4075C43F75C50143C48043AA02D2C1
:020A2900AF22FA
:03008300020A96D8
:0F0A9600C0E0E5C430E60553C4BFD20AD0E03259
:050B1B0012098980FEB3
:10098900E4F5D775D33F75D4869010427483F0A3EC
:090999007420F043A902D2AF2240
:03004300020AA509
:0F0AA500C0E0E5D430E60553D4BFB284D0E032D0
:1002880002037AE493A3F8E493A34003F68001F20F
:1002980008DFF48029E493A3F85407240CC8C33377
:1002A800C4540F4420C8834004F456800146F6DF46
:1002B800E4800B0102040810204080900450E47E82
:1002C800019360BCA3FF543F30E509541FFEE4933B
:1002D800A360010ECF54C025E060A840B8E493A302
:1002E800FAE493A3F8E493A3C8C582C8CAC583CA2D
:1002F800F0A3C8C582C8CAC583CADFE9DEE780BEE5
:0104B5000046
:10010000BB010CE58229F582E5833AF583E02250B4
:1001100006E92582F8E622BBFE06E92582F8E222FE
:0D012000E58229F582E5833AF583E4932218
:10012D00E88FF0A4CC8BF0A42CFCE98EF0A42CFC71
:10013D008AF0EDA42CFCEA8EF0A4CDA8F08BF0A4EF
:10014D002DCC3825F0FDE98FF0A42CCD35F0FCEB4E
:10015D008EF0A4FEA9F0EB8FF0A4CFC5F02ECD3913
:0F016D00FEE43CFCEAA42DCE35F0FDE43CFC2280
:10017C0075F008758200EF2FFFEE33FECD33CDCC3A
:10018C0033CCC58233C5829BED9AEC99E5829840BD
:10019C000CF582EE9BFEED9AFDEC99FC0FD5F0D69A
:1001AC00E4CEFBE4CDFAE4CCF9A88222B800C1B9C4
:1001BC000059BA002DEC8BF084CFCECDFCE5F0CB02
:1001CC00F97818EF2FFFEE33FEED33FDEC33FCEB3B
:1001DC0033FB10D703994004EB99FB0FD8E5E4F9F6
:1001EC00FA227818EF2FFFEE33FEED33FDEC33FCE3
:1001FC00C933C910D7059BE99A4007EC9BFCE99AD7
:10020C00F90FD8E0E4C9FAE4CCFB2275F010EF2F1B
:10021C00FFEE33FEED33FDCC33CCC833C810D7071B
:10022C009BEC9AE899400AED9BFDEC9AFCE899F856
:0E023C000FD5F0DAE4CDFBE4CCFAE4C8F922E9
:10024A00EB9FF5F0EA9E42F0E99D42F0E89C45F00A
:01025A002281
:10025B00E8600FECC313FCED13FDEE13FEEF13FF81
:03026B00D8F122A5
:00000001FF
