:03000000020241B8
:1002410078FFE4F6D8FD9000007F007E07E4F0A37C
:0A025100DFFCDEFA7581260202963A
:1002DB001206B143CF1075EF0100000000000000C3
:1002EB0000E470507409B40A0050499002FDF828DC
:1002FB00287302031B02031E0203210203240203C1
:10030B002702032A02032D02033002033302033CAC
:10031B0002079E0207A30207A80203A00207B2026C
:10032B0006E80206CD0205C57D027F7F7E00020630
:05033B00191203FE226F
:1003FE0053EFBF7D557CAA7FAA7E551205987F725A
:10040E007E557DFF7C38AB0FAA0EA90DA80CC3122A
:10041E00021D7002C2A0751AAA751B557F007E556B
:10042E007DAA7CFF1204B07F407E807D017C00ABF4
:10043E000BAA0AA909A808C312021D70B3E515B4C8
:0B044E00C0AEE514B43FA9D2A080A509
:06056B0002240000C1069D
:1005C5007D047F037E0012050043AD403006FDC269
:1005D50006AFAFEF75F010A4FFAEF0E5AEC4540F53
:0B05E5007C002FF525EC3EF52480DEA5
:10050000EF4480F5ADC3EF9408EE9400500F7401F2
:10051000A807088002C333D8FCF5AB8011EF24F89C
:10052000FF7401A807088002C333D8FCF5AC8DAA7C
:0605300043A840D2AF22F7
:030033000207922F
:0607920053ADDFD2063278
:05079E0012078080FE3F
:0907800075CE85D2AF43A9042215
:03004B0002077435
:0C077400C0E0E5CE20E602B2A0D0E032EA
:0305710001260060
:0507A30012066880FE53
:100668005391374392C853A1FC43A203E4F5BA75EA
:10067800BC0C75C63075BB08F5BD75C73043A805F9
:0606880043A908D2AF22D5
:030003000207B73A
:0307B700B2A432B7
:030013000207479A
:0F074700B2A52096037526102097037526203241
:030053000207BAE7
:0307BA00B2A632B2
:07057400022200000121003A
:100619008E168F178D18AB187DFF120641AD18AFD6
:1006290017AE161207038F21E4F5F4E521B4FF0490
:08063900B2A080F7B2A180F32A
:100641008E198F1AC2AF8DF5E519547FF5F3851A0E
:10065100F28BF475F1F075F6060000000000000061
:0706610000E4F5F4D2AF2222
:10070300C2AF8DF4E5232FF582E5223EF583E49312
:08071300FCE4F5F4D2AFAF04E1
:01071B0022BB
:1006B100E4F59AF59BF5917592FF75A1FFF5A243BB
:0C06C1009ADC4391C043A18C43D9032272
:08057B00C101C100C102C1036E
:1006CD00E4751B80751A25F519F5187F08FE1204BF
:0B06DD0059759FAA3001FDC20180F694
:100459008E168F1753A1FC43A203438FC0759D507D
:10046900AE16AF17E4FCFD7B407A42790FF8120112
:1004790000AB1BAA1AA919A81812018B8F9EAE16D8
:10048900AF17E4FCFD7B407A42790FF8120100AB0B
:100499001BAA1AA919A81812018B780812022E8F03
:0704A9009543A901D2AF2227
:0F075600438F80759D80759E0143A901D2AF220C
:10073500438F40759D2F759E01439D8043A901D22E
:02074500AF22E1
:03003B0002071C9D
:10071C00C0E0E59D30E105539DFDD201E59D30E043
:09072C0005539DFED200D0E0321D
:0507A80012053680FE81
:10053600758E07438901758A40758CA2C28CD2A933
:10054600D28C438920758B10758D10C28ED2ABD29A
:100556008EE4F5C9F5C875CB4475CA80C2CAD2AD5A
:05056600D2CAD2AF2251
:03000B0002078960
:09078900758A40758CA2B2A432FD
:03001B000207BD1C
:0307BD00B2A532B0
:03002B000207AD1C
:0507AD00C2CFB2A6322C
:04058300C104C105E9
:1006E800E4751B80751A25F519F5187F0CFE1203A1
:0B06F800407599553004FDC20480F6E7
:100340008E168F175391F343920C439850438E02AD
:10035000438920438780AE16AF17E4FCFD7B407ACB
:1003600042790FF8120100AB1BAA1AA919A818129A
:10037000018B780812022E8F8DAE16AF17E4FCFDAC
:100380007B407A42790FF8120100AB1BAA1AA91917
:10039000A81812018B8F8BC28EC2ABD2ACD2AF2207
:030023000207656C
:0F076500309904C299D204309804C298D2053258
:1003A000439A1F539BE043801F7FFE12079812065B
:1003B0008E7FFD12079812068E7FFB120798120699
:1003C0008E7FF712079812068E7FEF12079812069B
:1003D0008E5380E07FFE12079812068E7FFD120773
:1003E0009812068E7FFB12079812068E7FF712076F
:0E03F0009812068E7FEF12079812068E80A8D4
:060798008F9C438F0C2230
:04068E007F647E0007
:10069200E4FDFCD3EF9400EE94004007EF1F70F3EB
:0E06A2001E80F00DBD00010CED64644C70E58F
:0106B0002227
:0507B2001205F080FEBD
:1005F000E4F5D175D23F75D4EA75D34F75D528751A
:10060000D62875D728F5DC75DD1475DE1475DF1472
:0906100043D28043A902D2AF22BB
:030043000207C0F1
:0307C000B2D8327A
:10058700040C000000000408000000000214000032
:100598008FE98EEA8DED8CEE43EF80E5EF20E7FBE7
:1005A80085E91385EA1285EB1185EC10AF13AE12BD
:0D05B800AD11AC108F0F8E0E8D0D8C0C222E
:1004B0008F1F8E1E8D1D8C1C851FE9851EEA851DD4
:1004C000EB851CEC851BEDE51AF5EE43EFC0E5EF7F
:1004D00020E7FB85E91385EA1285EB1185EC10AF67
:1004E000EEEFFEADED7C00E42DF515EC3EF514AF1E
:0F04F00013AE12AD11AC108F0B8E0A8D098C0854
:0104FF0022DA
:10025B000202DBE493A3F8E493A34003F68001F2DC
:10026B0008DFF48029E493A3F85407240CC8C333A4
:10027B00C4540F4420C8834004F456800146F6DF73
:10028B00E4800B010204081020408090056BE47E93
:10029B00019360BCA3FF543F30E509541FFEE49368
:1002AB00A360010ECF54C025E060A840B8E493A32F
:1002BB00FAE493A3F8E493A3C8C582C8CAC583CA5A
:1002CB00F0A3C8C582C8CAC583CADFE9DEE780BE12
:010597000063
:10010000E88FF0A4CC8BF0A42CFCE98EF0A42CFC9E
:100110008AF0EDA42CFCEA8EF0A4CDA8F08BF0A41C
:100120002DCC3825F0FDE98FF0A42CCD35F0FCEB7B
:100130008EF0A4FEA9F0EB8FF0A4CFC5F02ECD3940
:0F014000FEE43CFCEAA42DCE35F0FDE43CFC22AD
:10014F0075F008758200EF2FFFEE33FECD33CDCC67
:10015F0033CCC58233C5829BED9AEC99E5829840EA
:10016F000CF582EE9BFEED9AFDEC99FC0FD5F0D6C7
:10017F00E4CEFBE4CDFAE4CCF9A88222B800C1B9F1
:10018F000059BA002DEC8BF084CFCECDFCE5F0CB2F
:10019F00F97818EF2FFFEE33FEED33FDEC33FCEB68
:1001AF0033FB10D703994004EB99FB0FD8E5E4F923
:1001BF00FA227818EF2FFFEE33FEED33FDEC33FC10
:1001CF00C933C910D7059BE99A4007EC9BFCE99A04
:1001DF00F90FD8E0E4C9FAE4CCFB2275F010EF2F49
:1001EF00FFEE33FEED33FDCC33CCC833C810D70749
:1001FF009BEC9AE899400AED9BFDEC9AFCE899F884
:0E020F000FD5F0DAE4CDFBE4CCFAE4C8F92216
:10021D00EB9FF5F0EA9E42F0E99D42F0E89C45F037
:01022D0022AE
:10022E00E8600FECC313FCED13FDEE13FEEF13FFAE
:03023E00D8F122D2
:00000001FF
