:03000000020100FA
:1001000078FFE4F6D8FD9000007F007E07E4F0A3BE
:0A011000DFFCDEFA758120020155C4
:10019A001203B843CF10E47045B4090050409001EF
:1001AA00AFF82828730201CA0201CD0201D0020168
:1001BA00D30201D60201D90201E80201DC0201DF01
:1001CA0002043B0204400204450201E902044F0210
:0F01DA0004040202A0E4FD7FFF7E1F1202C82270
:0603D10002100000C10251
:1002A000E4FFFE12026C43AD403002FDC202AFAF6C
:1002B000EF75F010A4FFAEF0E5AEC4540F7C002F34
:0802C000F511EC3EF51080DEA3
:10026C00EF4480F5ADC3EF9408EE9400500F740189
:10027C00A807088002C333D8FCF5AB8011EF24F833
:10028C00FF7401A807088002C333D8FCF5AC43A85F
:04029C0040D2AF227B
:0300330002042F95
:06042F0053ADEFD20232D2
:05043B0012041D80FE0B
:09041D0075CE84D2AF43A904227C
:03004B000204119B
:0C041100C0E0E5CE20E602B281D0E0326F
:0303D70001120010
:0504400012037F80FEA5
:10037F005391F743920853A1FC43A203E4F5BA75D6
:10038F00C63075BB08F5C743A80143A908D2AF22F1
:03000300020454A0
:03045400B282323F
:030053000203E6BF
:0F03E600B28320A00375121020A10375122032DC
:0703DA00020E0000010D00FE
:1002C8008E088F098D0AAB0A7DFF1202F0AD0AAFC6
:1002D80009AE0812039F8F0DE4F5F4E50DB4FF0491
:0802E800B28280F7B28380F3BB
:1002F0008E0B8F0CC2AF8DF5E50B547FF5F3850C9B
:10030000F28BF475F1F075F60600000000000000B5
:0703100000E4F5F4D2AF2276
:10039F00C2AF8DF4E50F2FF582E50E3EF583E493A2
:0803AF00FCE4F5F4D2AFAF0449
:0103B7002223
:1003B800759AFFE4F59BF591F592F5A175A2FF43B7
:0903C8009AF04391F043A13C229C
:0504450012023780FEE9
:10023700758E07438901758A40758CA2C28CD2A935
:10024700D28C438920758B10758D10C28ED2ABD29C
:100257008EE4F5C9F5C875CB4475CA80C2CAD2AD5C
:05026700D2CAD2AF2253
:03000B00020426C6
:09042600758A40758CA2B2823285
:03001B0002045785
:03045700B283323B
:03002B0002044A82
:05044A00C2CFB28332B5
:0403E100C100C10195
:0D04040012035D7599553000FDC20080F6B1
:10035D005391F343920C759850438780E4F5C8751B
:10036D008920758E02758BD9758DD9D28ED2ACD26E
:02037D00AF22AD
:030023000203F5E0
:0F03F500309904C299D200309804C298D20132D4
:05044F0012031780FEFE
:10031700E4F5D275D107F5D475D36375D53275D6A3
:100327001975D70A75DE1975DF0A43D28043A9020A
:03033700D2AF2220
:0300430002045A5A
:03045A00B2823239
:1001E900439A0F539BF043801F7FFE12043512037D
:1001F9003A7FFD12043512033A7FFB1204351203CC
:100209003A7FF712043512033A5380E07FFE120455
:100219003512033A7FFD12043512033A7FFB1204AB
:0E0229003512033A7FF712043512033A80B8FB
:060435008F9C438F0C2296
:04033A007F647E005E
:10033E00E4FDFCD3EF9400EE94004007EF1F70F342
:0E034E001E80F00DBD00010CED64644C70E5E6
:01035C00227E
:10011A0002019AE493A3F8E493A34003F68001F260
:10012A0008DFF48029E493A3F85407240CC8C333E6
:10013A00C4540F4420C8834004F456800146F6DFB5
:10014A00E4800B01020408102040809003D1E47E71
:10015A00019360BCA3FF543F30E509541FFEE493AA
:10016A00A360010ECF54C025E060A840B8E493A371
:10017A00FAE493A3F8E493A3C8C582C8CAC583CA9C
:10018A00F0A3C8C582C8CAC583CADFE9DEE780BE54
:0103E5000017
:00000001FF
