:03000000020241B8
:1002410078FFE4F6D8FD9000007F007E03E4F0A380
:0A025100DFFCDEFA7581260202963A
:1002DB0012071C43CF1075EF010000000000000057
:1002EB00007E007F09E4704FEFB40A005049900381
:1002FB0000F828287302031E0203210203240203C1
:10030B002702032A02032D020330020333020336B2
:10031B0002033F0207A40207A90207AE0203A302CE
:10032B0007B80206CF0206B40205C87D027F7F7EA6
:08033B000002061C120401225D
:1004010053EFBF7D557CAA7FAA7E5512059B7F7253
:100411007E557DFF7C38AB0FAA0EA90DA80CC31227
:10042100021D7002C280751AAA751B557F007E5588
:100431007DAA7CFF1204B37F407E807D017C00ABEE
:100441000BAA0AA909A808C312021D70B3E515B4C5
:0B045100C0AEE514B43FA9D28080A526
:06056E0002240000C1069A
:1005C8007D047F037E0012050343AD403006FDC263
:1005D80006AFAFEF75F010A4FFAEF0E5AEC4540F50
:0B05E8007C002FF525EC3EF52480DEA2
:10050300EF4480F5ADC3EF9408EE9400500F7401EF
:10051300A807088002C333D8FCF5AB8011EF24F899
:10052300FF7401A807088002C333D8FCF5AC8DAA79
:0605330043A840D2AF22F4
:0300330002079829
:0607980053ADDFD2063272
:0507A40012078680FE33
:0907860075CE85D2AF43A904220F
:03004B0002077039
:0C077000C0E0E5CE20E602B2A0D0E032EE
:030574000126005D
:0507A90012066B80FE4A
:10066B005391374392C853A1FC43A203E4F5BA75E7
:10067B00BC0C75C63075BB08F5BD75C73043A805F6
:06068B0043A908D2AF22D2
:0300030002077C75
:0A077C00C0D0A282B392A4D0D03204
:030013000207439E
:0F074300B2A52096037526102097037526203245
:030053000207BDE4
:0307BD00B2A632AF
:070577000222000001210037
:10061C008E168F178D18AB187DFF120644AD18AFD0
:10062C0017AE161206EA8F21E4F5F4E521B4FF04A7
:08063C00B28280F7B28380F363
:100644008E198F1AC2AF8DF5E519547FF5F3851A0B
:10065400F28BF475F1F075F606000000000000005E
:0706640000E4F5F4D2AF221F
:1006EA00C2AF8DF4E5232FF582E5223EF583E4932C
:0806FA00FCE4F5F4D2AFAF04FB
:0107020022D4
:10071C00E4F59AF59BF5917592FF75A1FFF5A2751D
:05072C00D9FFF5DA22FF
:08057E00C101C100C102C1036B
:1006B400E4751B80751A25F519F5187F0CFE1204D4
:0B06C4005C759FAA3001FDC20180F6AA
:10045C008E168F1753A1FC43A203438FC0759D507A
:10046C00AE16AF17E4FCFD7B407A42790FF812010F
:10047C0000AB1BAA1AA919A81812018B8F9EAE16D5
:10048C00AF17E4FCFD7B407A42790FF8120100AB08
:10049C001BAA1AA919A81812018B780812022E8F00
:0704AC009543A901D2AF2224
:0F075200438F80759D80759E0143A901D2AF2210
:10073100438F40759D2F759E01439D8043A901D232
:02074100AF22E5
:03003B00020703B6
:10070300C0E0E59D30E105539DFDD201E59D30E05C
:0907130005539DFED200D0E03236
:0507AE0012053980FE78
:10053900758E07438901758A40758CA2C28CD2A930
:10054900D28C438920758B10758D10C28ED2ABD297
:100559008EE4F5C9F5C875CB4475CA80C2CAD2AD57
:05056900D2CAD2AF224E
:03000B0002078F5A
:09078F00758A40758CA2B2823219
:03001B000207C019
:0307C000B28332CF
:03002B000207B316
:0507B300C2CFB2843248
:04058600C104C105E6
:1006CF00E4751B80751A25F519F5187F0CFE1203BA
:0B06DF00437599553004FDC20480F6FD
:100343008E168F175391F343920C439850438E02AA
:10035300438920438780AE16AF17E4FCFD7B407AC8
:1003630042790FF8120100AB1BAA1AA919A8181297
:10037300018B780812022E8F8DAE16AF17E4FCFDA9
:100383007B407A42790FF8120100AB1BAA1AA91914
:10039300A81812018B8F8BC28EC2ABD2ACD2AF2204
:0300230002076170
:0F076100309904C299D204309804C298D205325C
:1003A300439A1F539BE043801F7FFE12079E120652
:1003B300917FFD12079E1206917FFB12079E120684
:1003C300917FF712079E1206917FEF12079E120686
:1003D300915380E07FFE12079E1206917FFD120764
:1003E3009E1206917FFB12079E1206917FF712075A
:0E03F3009E1206917FEF12079E12069180A8BF
:06079E008F9C438F0C222A
:040691007F647E0004
:10069500E4FDFCD3EF9400EE94004007EF1F70F3E8
:0E06A5001E80F00DBD00010CED64644C70E58C
:0106B3002224
:0507B8001205F380FEB4
:1005F300E4F5D175D23F75D4EA75D34F75D5287517
:10060300D62875D728F5DC75DD1475DE1475DF146F
:0906130043D28043A902D2AF22B8
:030043000207C3EE
:0307C300B28732C8
:10058A00040C00000000040800000000021400002F
:10059B008FE98EEA8DED8CEE43EF80E5EF20E7FBE4
:1005AB0085E91385EA1285EB1185EC10AF13AE12BA
:0D05BB00AD11AC108F0F8E0E8D0D8C0C222B
:1004B3008F1F8E1E8D1D8C1C851FE9851EEA851DD1
:1004C300EB851CEC851BEDE51AF5EE43EFC0E5EF7C
:1004D30020E7FB85E91385EA1285EB1185EC10AF64
:1004E300EEEFFEADED7C00E42DF515EC3EF514AF1B
:0F04F30013AE12AD11AC108F0B8E0A8D098C0851
:0105020022D6
:10025B000202DBE493A3F8E493A34003F68001F2DC
:10026B0008DFF48029E493A3F85407240CC8C333A4
:10027B00C4540F4420C8834004F456800146F6DF73
:10028B00E4800B010204081020408090056EE47E90
:10029B00019360BCA3FF543F30E509541FFEE49368
:1002AB00A360010ECF54C025E060A840B8E493A32F
:1002BB00FAE493A3F8E493A3C8C582C8CAC583CA5A
:1002CB00F0A3C8C582C8CAC583CADFE9DEE780BE12
:01059A000060
:10010000E88FF0A4CC8BF0A42CFCE98EF0A42CFC9E
:100110008AF0EDA42CFCEA8EF0A4CDA8F08BF0A41C
:100120002DCC3825F0FDE98FF0A42CCD35F0FCEB7B
:100130008EF0A4FEA9F0EB8FF0A4CFC5F02ECD3940
:0F014000FEE43CFCEAA42DCE35F0FDE43CFC22AD
:10014F0075F008758200EF2FFFEE33FECD33CDCC67
:10015F0033CCC58233C5829BED9AEC99E5829840EA
:10016F000CF582EE9BFEED9AFDEC99FC0FD5F0D6C7
:10017F00E4CEFBE4CDFAE4CCF9A88222B800C1B9F1
:10018F000059BA002DEC8BF084CFCECDFCE5F0CB2F
:10019F00F97818EF2FFFEE33FEED33FDEC33FCEB68
:1001AF0033FB10D703994004EB99FB0FD8E5E4F923
:1001BF00FA227818EF2FFFEE33FEED33FDEC33FC10
:1001CF00C933C910D7059BE99A4007EC9BFCE99A04
:1001DF00F90FD8E0E4C9FAE4CCFB2275F010EF2F49
:1001EF00FFEE33FEED33FDCC33CCC833C810D70749
:1001FF009BEC9AE899400AED9BFDEC9AFCE899F884
:0E020F000FD5F0DAE4CDFBE4CCFAE4C8F92216
:10021D00EB9FF5F0EA9E42F0E99D42F0E89C45F037
:01022D0022AE
:10022E00E8600FECC313FCED13FDEE13FEEF13FFAE
:03023E00D8F122D2
:00000001FF
