:03000000020241B8
:1002410078FFE4F6D8FD9000007F007E03E4F0A380
:0A025100DFFCDEFA75812C02029634
:1002DB00E4F521F52212072643CF1075EF0100003C
:1002EB000000000000007E007F02E4704FEFB40AB4
:1002FB00005049900305F8282873020323020326B4
:10030B0002032902032C02032F02033202033502DC
:10031B00033802033B0203440207A40207A90207A6
:10032B00AE0203AD0207B80206D90206BE0205D221
:0C033B007D027F7F7E0002062612040B6C
:010347002293
:10040B0053EFBF7D557CAA7FAA7E551205A57F723F
:10041B007E557DFF7C38AB0FAA0EA90DA80CC3121D
:10042B00021D7002C2A07527AA7528557F007E5544
:10043B007DAA7CFF1204BD7F407E807D017C00ABDA
:10044B000BAA0AA909A808C312021D70B3E515B4BB
:0B045B00C0AEE514B43FA9D2A080A5FC
:0605780002190000C1069B
:1005D2007D047F037E0012050D43AD403006FDC24F
:1005E20006AFAFEF75F010A4FFAEF0E5AEC4540F46
:0B05F2007C002FF51AEC3EF51980DEAE
:10050D00EF4480F5ADC3EF9408EE9400500F7401E5
:10051D00A807088002C333D8FCF5AB8011EF24F88F
:10052D00FF7401A807088002C333D8FCF5AC8DAA6F
:06053D0043A840D2AF22EA
:0300330002079829
:0607980053ADDFD2063272
:0507A40012078680FE33
:0907860075CE85D2AF43A904220F
:03004B0002077A2F
:0C077A00C0E0E5CE20E602B2A0D0E032E4
:03057E00011B005E
:0507A90012067580FE40
:100675005391374392C853A1FC43A203E4F5BA75DD
:10068500BC0C75C63075BB08F5BD75C73043A805EC
:0606950043A908D2AF22C8
:030003000207BD34
:0307BD00B2A432B1
:0300130002074D94
:0F074D00B2A5209603751B10209703751B203251
:030053000207C0E1
:0307C000B2A632AC
:070581000217000001160043
:100626008E238F248D25AB257DFF12064EAD25AF7B
:1006360024AE231206F48F16E4F5F4E516B4FF048F
:08064600B2A080F7B2A180F31D
:10064E008E268F27C2AF8DF5E526547FF5F38527CD
:10065E00F28BF475F1F075F6060000000000000054
:07066E0000E4F5F4D2AF2215
:1006F400C2AF8DF4E5182FF582E5173EF583E49338
:08070400FCE4F5F4D2AFAF04F0
:01070C0022CA
:10072600E4F59AF59BF5917592FF75A1FFF5A27513
:05073600D9FFF5DA22F5
:08058800C101C100C102C10361
:1006BE00E4752880752725F526F5257F0CFE120496
:0B06CE0066759FAA3001FDC20180F696
:100466008E238F2453A1FC43A203438FC0759D5056
:10047600AE23AF24E4FCFD7B407A42790FF81201EB
:1004860000AB28AA27A926A82512018B8F9EAE238A
:10049600AF24E4FCFD7B407A42790FF8120100ABF1
:1004A60028AA27A926A82512018B780812022E8FC2
:0704B6009543A901D2AF221A
:0F075C00438F80759D80759E0143A901D2AF2206
:10073B00438F40759D2F759E01439D8043A901D228
:02074B00AF22DB
:03003B0002070DAC
:10070D00C0E0E59D30E105539DFDD201E59D30E052
:09071D0005539DFED200D0E0322C
:0507AE0012054380FE6E
:10054300758E07438901758A40758CA2C28CD2A926
:10055300D28C438920758B10758D10C28ED2ABD28D
:100563008EE4F5C9F5C875CB4475CA80C2CAD2AD4D
:05057300D2CAD2AF2244
:03000B0002078F5A
:09078F00758A40758CA2B2A432F7
:03001B000207C316
:0307C300B2A532AA
:03002B000207B316
:0507B300C2CFB2A63226
:04059000C104C105DC
:1006D900E4752880752725F526F5257F0CFE12037C
:0B06E900487599553004FDC20480F6EE
:100348008E238F245391F3439108439204D293430D
:100358009850438E02438920438780AE23AF24E41C
:10036800FCFD7B407A42790FF8120100AB28AA27DE
:10037800A926A82512018B780812022E8F8DAE238C
:10038800AF24E4FCFD7B407A42790FF8120100AB00
:1003980028AA27A926A82512018B8F8BC28EC2AB4B
:0503A800D2ACD2AF222F
:0300230002076B66
:0F076B00309904C299D204309804C298D2053252
:1003AD00439A1F539BE043801F7FFE12079E120648
:1003BD009B7FFD12079E12069B7FFB12079E120666
:1003CD009B7FF712079E12069B7FEF12079E120668
:1003DD009B5380E07FFE12079E12069B7FFD120746
:1003ED009E12069B7FFB12079E12069B7FF712073C
:0E03FD009E12069B7FEF12079E12069B80A8A1
:06079E008F9C438F0C222A
:04069B007F647E00FA
:10069F00E4FDFCD3EF9400EE94004007EF1F70F3DE
:0E06AF001E80F00DBD00010CED64644C70E582
:0106BD00221A
:0507B8001205FD80FEAA
:1005FD00E4F5D175D23F75D4EA75D34F75D528750D
:10060D00D62875D728F5DC75DD1475DE1475DF1465
:09061D0043D28043A902D2AF22AE
:030043000207C6EB
:0307C600B28732C5
:10059400040C000000000408000000000214000025
:1005A5008FE98EEA8DED8CEE43EF80E5EF20E7FBDA
:1005B50085E91385EA1285EB1185EC10AF13AE12B0
:0D05C500AD11AC108F0F8E0E8D0D8C0C2221
:1004BD008F2C8E2B8D2A8C29852CE9852BEA852A6C
:1004CD00EB8529EC8528EDE527F5EE43EFC0E5EF4B
:1004DD0020E7FB85E91385EA1285EB1185EC10AF5A
:1004ED00EEEFFEADED7C00E42DF515EC3EF514AF11
:0F04FD0013AE12AD11AC108F0B8E0A8D098C0847
:01050C0022CC
:10025B000202DBE493A3F8E493A34003F68001F2DC
:10026B0008DFF48029E493A3F85407240CC8C333A4
:10027B00C4540F4420C8834004F456800146F6DF73
:10028B00E4800B0102040810204080900578E47E86
:10029B00019360BCA3FF543F30E509541FFEE49368
:1002AB00A360010ECF54C025E060A840B8E493A32F
:1002BB00FAE493A3F8E493A3C8C582C8CAC583CA5A
:1002CB00F0A3C8C582C8CAC583CADFE9DEE780BE12
:0105A4000056
:10010000E88FF0A4CC8BF0A42CFCE98EF0A42CFC9E
:100110008AF0EDA42CFCEA8EF0A4CDA8F08BF0A41C
:100120002DCC3825F0FDE98FF0A42CCD35F0FCEB7B
:100130008EF0A4FEA9F0EB8FF0A4CFC5F02ECD3940
:0F014000FEE43CFCEAA42DCE35F0FDE43CFC22AD
:10014F0075F008758200EF2FFFEE33FECD33CDCC67
:10015F0033CCC58233C5829BED9AEC99E5829840EA
:10016F000CF582EE9BFEED9AFDEC99FC0FD5F0D6C7
:10017F00E4CEFBE4CDFAE4CCF9A88222B800C1B9F1
:10018F000059BA002DEC8BF084CFCECDFCE5F0CB2F
:10019F00F97818EF2FFFEE33FEED33FDEC33FCEB68
:1001AF0033FB10D703994004EB99FB0FD8E5E4F923
:1001BF00FA227818EF2FFFEE33FEED33FDEC33FC10
:1001CF00C933C910D7059BE99A4007EC9BFCE99A04
:1001DF00F90FD8E0E4C9FAE4CCFB2275F010EF2F49
:1001EF00FFEE33FEED33FDCC33CCC833C810D70749
:1001FF009BEC9AE899400AED9BFDEC9AFCE899F884
:0E020F000FD5F0DAE4CDFBE4CCFAE4C8F92216
:10021D00EB9FF5F0EA9E42F0E99D42F0E89C45F037
:01022D0022AE
:10022E00E8600FECC313FCED13FDEE13FEEF13FFAE
:03023E00D8F122D2
:00000001FF
