:03000000020230C9
:1002300078FFE4F6D8FD9000007F007E07E4F0A38D
:0A024000DFFCDEFA75812002028562
:1003870012059B43CF1075EF01000000000000002D
:1003970000E470447405B40800503D9003A9F828A0
:1003A70028730203C10203C40203C70203CA02037C
:1003B700CD0203D00203D30203D60205F60205FBE2
:1003C70002060002060A02052202050702046BE480
:0903D700FD7FFF7E1F1204942239
:06053D0002110000C106DE
:10046B007F067E001204E343AD403006FDC206AFAB
:10047B00AFEF75F010A4FFAEF0E5AEC4540F7C00E7
:09048B002FF512EC3EF51180DEA4
:1004E300EF4480F5ADC3EF9408EE9400500D740112
:1004F300A807088002C333D8FCF5AB75AA0443A848
:0405030040D2AF2211
:030033000205F0D3
:0605F00053ADDFD206321C
:0505F6001205D580FE96
:0905D50075CE84D2AF43A90422C3
:03004B000205C9E2
:0C05C900C0E0E5CE20E602B2A0D0E03297
:0505FB0012041180FE56
:10041100539A02439B0153918043927F53A101431D
:10042100A2FE75BA0375BC7F75C6FE75BB0375BDAB
:0D0431007F75C7FE43A88543A908D2AF22FE
:0300030002060FE3
:03060F00B2813283
:03001300020612D0
:03061200B297326A
:030053000206158D
:03061500B2A0325E
:07054300020F0000010E0091
:100494008E088F098D0AAB0A7DFF1204BCAD0AAF2A
:1004A40009AE081205578F0EE4F5F4E50EB4FF0407
:0804B400B2A080F7B2A180F3B1
:1004BC008E0B8F0CC2AF8DF5E50B547FF5F3850CCD
:1004CC00F28BF475F1F075F60600000000000000E8
:0704DC0000E4F5F4D2AF22A9
:10055700C2AF8DF4E5102FF582E50F3EF583E493E6
:08056700FCE4F5F4D2AFAF048F
:01056F002269
:10059B00E4F59AF59BF5917592FF75A1FFF5A222F3
:08054A00C101C100C102C1039F
:10050700E4750D80750C25F50BF50A7F10FE1203B7
:0B0517002A759FAA3001FDC20180F68A
:10032A008E088F095391FE53A17F43A28043920105
:10033A00438FC0759D50AE08AF09E4FCFD7B407A3F
:10034A0042790FF8120100AB0DAA0CA90BA80A12E8
:10035A00018B8F9EAE08AF09E4FCFD7B407A42799F
:10036A000FF8120100AB0DAA0CA90BA80A12018BF7
:0D037A00780812021D8F9543A901D2AF2211
:0F05AB00438F80759D80759E0143A901D2AF22B9
:10058900438F40759D2F759E01439D8043A901D2DC
:02059900AF228F
:03003B000205704B
:10057000C0E0E59D30E105539DFDD201E59D30E0F1
:0905800005539DFED200D0E032CB
:050600001203E080FE82
:1003E000758E07758911758A80758CC1C28CD2A9EA
:1003F000D28C758B80758D44C28ED2ABD28EE4F5D3
:10040000C9F5C875CB83F5CAC2CAD2ADD2CAD2AFBC
:0104100022C9
:03000B000205DE0D
:0905DE00758A80758CC1B2A0324F
:03001B000205E7F4
:0905E700758B80758D44B2A132C0
:03002B00020605C5
:05060500C2CFB2A232D9
:04055200C104C1051A
:10052200E4750D80750C25F50BF50A7F10FE12029D
:0B053200CA7599553004FDC20480F624
:1002CA008E088F0953919F439260439850438E0240
:1002DA00438920438780AE08AF09E4FCFD7B407A5E
:1002EA0042790FF8120100AB0DAA0CA90BA80A1249
:1002FA00018B780812021D8F8DAE08AF09E4FCFD50
:10030A007B407A42790FF8120100AB0DAA0CA90BB7
:10031A00A80A12018B8F8BC28EC2ABD2ACD2AF228B
:030023000205BA19
:0F05BA00309904C299D204309804C298D2053205
:05060A0012043E80FE19
:10043E00E4F5D175D28175D45575DBAA75D33E75A9
:10044E00DA7F75D51F75D61F75D71F75DC1F75DD45
:0D045E000C75DE0C75DF0C43A902D2AF2235
:030043000206189A
:03061800B2A0325B
:10024A00020387E493A3F8E493A34003F68001F240
:10025A0008DFF48029E493A3F85407240CC8C333B5
:10026A00C4540F4420C8834004F456800146F6DF84
:10027A00E4800B010204081020408090053DE47ED2
:10028A00019360BCA3FF543F30E509541FFEE49379
:10029A00A360010ECF54C025E060A840B8E493A340
:1002AA00FAE493A3F8E493A3C8C582C8CAC583CA6B
:1002BA00F0A3C8C582C8CAC583CADFE9DEE780BE23
:0105560000A4
:10010000E88FF0A4CC8BF0A42CFCE98EF0A42CFC9E
:100110008AF0EDA42CFCEA8EF0A4CDA8F08BF0A41C
:100120002DCC3825F0FDE98FF0A42CCD35F0FCEB7B
:100130008EF0A4FEA9F0EB8FF0A4CFC5F02ECD3940
:0F014000FEE43CFCEAA42DCE35F0FDE43CFC22AD
:10014F0075F008758200EF2FFFEE33FECD33CDCC67
:10015F0033CCC58233C5829BED9AEC99E5829840EA
:10016F000CF582EE9BFEED9AFDEC99FC0FD5F0D6C7
:10017F00E4CEFBE4CDFAE4CCF9A88222B800C1B9F1
:10018F000059BA002DEC8BF084CFCECDFCE5F0CB2F
:10019F00F97818EF2FFFEE33FEED33FDEC33FCEB68
:1001AF0033FB10D703994004EB99FB0FD8E5E4F923
:1001BF00FA227818EF2FFFEE33FEED33FDEC33FC10
:1001CF00C933C910D7059BE99A4007EC9BFCE99A04
:1001DF00F90FD8E0E4C9FAE4CCFB2275F010EF2F49
:1001EF00FFEE33FEED33FDCC33CCC833C810D70749
:1001FF009BEC9AE899400AED9BFDEC9AFCE899F884
:0E020F000FD5F0DAE4CDFBE4CCFAE4C8F92216
:10021D00E8600FECC313FCED13FDEE13FEEF13FFBF
:03022D00D8F122E3
:00000001FF
