:0300000002026E8B
:10026E0078FFE4F6D8FD9000007FFF7E10E4F0A347
:0A027E00DFFCDEFA75815E0202C3A8
:1004CF00120A2EE47060740CB40D0050599004E3BE
:1004DF00F828287302050A02050D020510020513FC
:1004EF0002051602051902051C02051F020522024C
:1004FF00052502052C02052F020532020BE0020B27
:10050F00E5020BEA020BEF020A4A020A10020A6521
:10051F000208CF0209547FFF7E1F0209A60205F4CD
:07052F00020BA4120BD22203
:1005F4007D557CAA7FAA7E5512089F7F727E557D09
:10060400FF7C38AB3BAA3AA939A838C312024A7016
:1006140002C2847546AA7547557F007E557DAA7C23
:10062400FF1206FA7F407E807D017C00AB37AA363C
:10063400A935A834C312024A70B6E541B4C0B1E585
:0806440040B43FACD28480A851
:100A2E00759AFFE4F59BF591F592F5A175A2FF433A
:0C0A3E009ADF4391D243A1EC43D903227C
:100B0D00D3EF9400EE94004007EF1F70F31E80F0BA
:010B1D0022B5
:050BE000120BB080FEC5
:090BB00075FB84D2AF43A90422B5
:03004B00020B980D
:0C0B9800C0E0E5FB20E602B285D0E032B0
:03030800015E0093
:050BE5001208FD80FE76
:1008FD005391F74392085391CF439230539ACF437C
:10090D009B30E4F5B475BC0375BE0375BB80F5BDB6
:0C091D0075BF0343A80543A908D2AF2210
:03000300020BF4F9
:030BF400B280329A
:03001300020B2FAE
:0F0B2F00B281209403755E10209503755E20320D
:03005300020BF7A6
:030BF700B2823295
:0F030B00024D0000024F000002510000014C00A3
:050BEA0012046680FE0C
:10046600758E07438901758A80758CC1C28CD2A9A5
:10047600D28C438920758B60758D60C28ED2ABD2CB
:100486008E75CE0275C80975C980E4F5CDF5CCF533
:10049600CBF5CAD2ADD2CA75CE0375C980F5C8757B
:1004A600CBC175CA80C2CA43A94043B940D2CA75F6
:1004B600CE0475C980F5C875CB83F5CAC2CA43A9EF
:0904C6008043B980D2CAD2AF22F2
:03000B00020BB92C
:090BB900758A80758CC1B282328C
:03001B00020BFADB
:030BFA00B2833291
:03002B000203824B
:10038200C0E0C0D075D000C004C005C006C007756B
:10039200CE02E5C830E64EB28753C8BF054CE54CE5
:1003A200C3940C4009754C0075CD0075CC00E54C2A
:1003B200B40A10AFCBEFFEADCA7C00E42DF550ECD1
:1003C2003EF54FE54CB40B1DAFCBEFFEADCA7C0042
:1003D200E42DF552EC3EF551C3E5529550F54EE54C
:1003E20051954FF54DD007D006D005D004D0D0D0CE
:0203F200E032F7
:03006B00020BC2C3
:080BC20075CE03C2CFB28532EB
:03007300020BCAB3
:080BCA0075CE04C2CFB28632E1
:10031A00043800000000043400000000024000001D
:10089F0053EFBF8FE98EEA8DED8CEE43EF80E5EFDE
:1008AF0020E7FB85E93F85EA3E85EB3D85EC3CAFD4
:1008BF003FAE3EAD3DAC3C8F3B8E3A8D398C3822EE
:1006FA008F4B8E4A8D498C4853EFBF43EF40854B51
:10070A00E9854AEA8549EB8548EC8547EDE546F5F2
:10071A00EE43EFC0E5EF20E7FB85E93F85EA3E853A
:10072A00EB3D85EC3CAFEEEFFEADED7C00E42DF544
:10073A0041EC3EF540AF3FAE3EAD3DAC3C8F378E0F
:05074A00368D358C34F2
:01074F002287
:06032A00025C0000C11995
:100954007F027E0012086B43AD403019FDC219AF0F
:10096400AFEF75F010A4FFAEF0E5AEC4540F7C00F9
:090974002FF55DEC3EF55C80DE20
:10086B00EF4480F5ADC3EF9408EE9400500F740184
:10087B00A807088002C333D8FCF5AB8011EF24F82E
:10088B00FF7401A807088002C333D8FCF5AC43A85A
:04089B0040D2AF2276
:03003300020BDAE3
:060BDA0053ADDFD2193219
:04033000C117C11818
:100A4A00E4754780754625F545F5447F20FE120575
:0B0A5A009A7599553017FDC21780F601
:10059A008E428F4353A1FC43A203439850438E02D9
:1005AA00AE42AF43E4FCFD7B407A42790FF8120178
:1005BA002DAB47AA46A945A8441201B878081202E9
:1005CA005B8F8DAE42AF43E4FCFD7B407A42790FEC
:1005DA00F812012DAB47AA46A945A8441201B88FC3
:0A05EA008BC28EC2ABD2ACD2AF229E
:03002300020B3E8F
:0F0B3E00309904C299D217309804C298D2183255
:07033400025A00000159000C
:1009A6008E428F4312097D7DFFAF43AE4212092965
:1009B600AF43AE421209F08F59E559B4FF04B28233
:0609C60080F7B28380F30C
:04092900AB07AA0668
:10092D00A2AF921AC2AFE4F5F48DF58AF38BF2758E
:10093D00F1F075F61043F602000000000000000013
:06094D00F5F4A21A92AFBE
:010953002281
:04097D00AD07AC0610
:10098100A2AF921AC2AFE4F5F48CF38DF275F1F0D7
:1009910075F62043F6020000000000000000F5F4A7
:0409A100A21A92AF55
:0109A500222F
:1009F000E4A2AF921AC2AFF5F4E55B2FF582E55A97
:0F0A00003EF583E493FDE4F5F4A21A92AFAF053F
:010A0F0022C4
:10033B00100800112233445566778899AABBCCDD8F
:08034B00EEFF041800000000A1
:0C0BA4001208367B007A00790802053642
:10083600A2AF921AC2AF43EF010000000000000011
:1008460000E4F5FC85FD1F85FD1E85FD1D85FD1C4F
:10085600AF1FAE1EAD1DAC1C8F1B8E1A8D198C18CA
:04086600A21A92AF91
:01086A00226B
:060536008B428A43894458
:10053C00E4FFFEA2AF921AC2AF43EF02000000002C
:10054C00000000000000AB42AA43A9448F828E83B6
:10055C00120100F5FD000000000000000000000F7B
:10056C00BF00010EEF64104E70DCE4F5FC85FD1F3E
:10057C0085FD1E85FD1D85FD1CAF1FAE1EAD1DAC82
:0D058C001C8F1B8E1A8D198C18A21A92AFAD
:01059900223F
:08035300C10EC10BC10CC10D6C
:100A1000E4754780754625F545F5447F20FE1207AD
:0E0A200050759FAAE59530E1FB5395FD80F3DC
:100750008E428F4353A1FC43A203438F30759550C3
:10076000AE42AF43E4FCFD7B407A42790FF81201C0
:100770002DAB47AA46A945A8441201B88F9DAE42A9
:10078000AF43E4FCFD7B407A42790FF812012DABB8
:1007900047AA46A945A8441201B8780812025B8FFF
:0207A0009E2297
:0F0B4D00438F20759580759D0543A901D2AF2276
:100AC500438F1075953F759D0143958043A901D2CC
:020AD500AF224E
:08035B00C112C10FC110C11154
:100A6500E4754780754625F545F5447F20FE120659
:0B0A75004C75A7AA3012FDC21280F6DB
:10064C008E428F43539AF3439B0C438FC075A45037
:10065C00AE42AF43E4FCFD7B407A42790FF81201C5
:10066C002DAB47AA46A945A8441201B88FA5AE42A6
:10067C00AF43E4FCFD7B407A42790FF812012DABBD
:10068C0047AA46A945A8441201B8780812025B8F04
:07069C00A643AA01D2AF2220
:0F0B5C00438F8075A48075A50543AA01D2AF22EF
:100AD700438F4075A43F75A50143A48043AA01D263
:020AE700AF223C
:03007B00020A80F6
:100A8000C0E0E5A430E10553A4FDD212E5A430E0B6
:090A90000553A4FED20FD0E032A0
:08036300C116C113C114C1153C
:1008CF00120B6B43C5203015FDC21575C7103015BF
:1008DF00FDC21575C7553015FDC2157F647E001218
:0E08EF000B0D43C5107F647E00120B0D80D5EB
:1006A3008E538F545391CF439230438EC075C450B1
:1006B300AE53AF54E4FCFD7B407A42790FF812014C
:1006C3002DAB58AA57A956A8551201B88FC5AE53DA
:1006D300AF54E4FCFD7B407A42790FF812012DAB55
:1006E30058AA57A956A8551201B8780812025B8F69
:0706F300C643AA02D2AF22A8
:0F0B6B00438E8075C48075C50543AA02D2AF22A0
:100AE900438E4075C43F75C50143C48043AA02D2F1
:020AF900AF222A
:03008300020B7AF3
:0F0B7A00C0E0E5C430E60553C4BFD215D0E03269
:050BEF001209CC80FE9C
:1009CC00E4F5D275D310F5D175D4FF75D57C9010A4
:1009DC0048743EF0A37480F043D28075D7A143A92C
:0409EC0002D2AF2262
:03004300020B8924
:0F0B8900C0E0E5D230E60553D1BFB284D0E032F0
:10036B00C109C107C105C10AC108C104C106C10148
:06037B00C100C103C10234
:080BD200120AB21207A280FE14
:100AB200538FCF7595305395FB759D74439E817509
:030AC200B6032256
:1007A200E4FE5395BFC296D29553957FD2A07F2A7D
:1007B200120B1E4395404395807FFA7E00120B1E5A
:1007C200D2967F907E01120B1E5395DFE4FEFF53FB
:1007D200B77FE5B720E2FBE5B730E5FB43B720740E
:1007E200242FF8A69F0FBF00010EEF64104E70DF9A
:0107F20022E4
:1007F300E4FEC2967F29120B1ED2A07FF27E001266
:100803000B1ED2967FF47E01120B1E5395DFE4FE7E
:10081300FF53B77FE5B720E2FBE5B730E5FB43B70E
:100823002074242FF8A69F0FBF00010EEF64104E13
:0208330070DF74
:0108350022A0
:100A99005395DF439520B287B287B2878F9FE5B719
:090AA90020E3FB3009FDC2092223
:100AFB00E4FF5395DFE5B720E2FB3007FDC207AFFC
:010B0B009F4A
:010B0C0022C6
:100B1E00D3EF9400EE94004007EF1F70F31E80F0A9
:010B2E0022A4
:03003B000203F4C9
:1003F400C0E0B28775B700E5B730E60543B740D231
:1004040009E5B730E50543B720D207E5B730E40284
:10041400D205E5B730E302D20AE5B730E202D208EA
:10042400E5B730E10543B702D204E5B730E0054350
:10043400B701D20675B780E5B730E30543B708D2F4
:1004440001E5B730E20543B704D200E5B730E10572
:1004540043B702D203E5B730E00543B701D202D077
:02046400E03284
:100288000204CFE493A3F8E493A34003F68001F2B9
:1002980008DFF48029E493A3F85407240CC8C33377
:1002A800C4540F4420C8834004F456800146F6DF46
:1002B800E4800B0102040810204080900308E47ECB
:1002C800019360BCA3FF543F30E509541FFEE4933B
:1002D800A360010ECF54C025E060A840B8E493A302
:1002E800FAE493A3F8E493A3C8C582C8CAC583CA2D
:1002F800F0A3C8C582C8CAC583CADFE9DEE780BEE5
:01038100007B
:10010000BB010CE58229F582E5833AF583E02250B4
:1001100006E92582F8E622BBFE06E92582F8E222FE
:0D012000E58229F582E5833AF583E4932218
:10012D00E88FF0A4CC8BF0A42CFCE98EF0A42CFC71
:10013D008AF0EDA42CFCEA8EF0A4CDA8F08BF0A4EF
:10014D002DCC3825F0FDE98FF0A42CCD35F0FCEB4E
:10015D008EF0A4FEA9F0EB8FF0A4CFC5F02ECD3913
:0F016D00FEE43CFCEAA42DCE35F0FDE43CFC2280
:10017C0075F008758200EF2FFFEE33FECD33CDCC3A
:10018C0033CCC58233C5829BED9AEC99E5829840BD
:10019C000CF582EE9BFEED9AFDEC99FC0FD5F0D69A
:1001AC00E4CEFBE4CDFAE4CCF9A88222B800C1B9C4
:1001BC000059BA002DEC8BF084CFCECDFCE5F0CB02
:1001CC00F97818EF2FFFEE33FEED33FDEC33FCEB3B
:1001DC0033FB10D703994004EB99FB0FD8E5E4F9F6
:1001EC00FA227818EF2FFFEE33FEED33FDEC33FCE3
:1001FC00C933C910D7059BE99A4007EC9BFCE99AD7
:10020C00F90FD8E0E4C9FAE4CCFB2275F010EF2F1B
:10021C00FFEE33FEED33FDCC33CCC833C810D7071B
:10022C009BEC9AE899400AED9BFDEC9AFCE899F856
:0E023C000FD5F0DAE4CDFBE4CCFAE4C8F922E9
:10024A00EB9FF5F0EA9E42F0E99D42F0E89C45F00A
:01025A002281
:10025B00E8600FECC313FCED13FDEE13FEEF13FF81
:03026B00D8F122A5
:00000001FF
