:03000000020230C9
:1002300078FFE4F6D8FD9000007F007E01E4F0A393
:0A024000DFFCDEFA75812102028561
:1003780012050B43CF10E4703E7408B407005037E1
:1003880090038FF82828730203A40203A70203AA84
:100398000203AD0203B00203B30203B60205E20290
:1003A80005E70205EC0205A40205B1020439E4FDE3
:0803B8007FFF7E1F1204612289
:0604B000021C0000C1085F
:10043900E4FFFE1203C043AD403008FDC208AFAF70
:10044900EF75F010A4FFAEF0E5AEC4540F7C002F99
:08045900F51DEC3EF51C80DEF0
:1003C000EF4480F5ADC3EF9408EE9400500FAD07F5
:1003D0007401A805088002C333D8FCF5ABD3EF94B1
:1003E00008EE94004019EF940BEE94005011EF24A6
:1003F000F8FF7401A807088002C333D8FCF5AC43AA
:05040000A840D2AF226C
:030033000205DCE7
:0605DC0053ADEFD208321E
:0505E2001205CA80FEB5
:0905CA0075CE84D2AF43A90422CE
:03004B000205BEED
:0C05BE00C0E0E5CE20E602B2A0D0E032A2
:0304B600011E0024
:0505E7001204D180FEAA
:1004D1005391F743920853A1FC43A203E4F5BA7583
:1004E100C63075BB0875C73043A80143A908D2AF10
:0104F10022E8
:030003000205F6FD
:0305F600B291328D
:030053000205772C
:0F057700B29220A003751E1020A103751E203222
:0704B900021A000001190006
:100461008E148F158D16AB167D55120489AD16AFFE
:1004710015AE141204F28F19E4F5F4E519B455041C
:08048100B2A080F7B2A180F3E4
:100489008E178F18C2AF8DF5E517547FF5F38518D0
:10049900F28BF475F1F075F606000000000000001B
:0704A90000E4F5F4D2AF22DC
:1004F200C2AF8DF4E51B2FF582E51A3EF583E49336
:08050200FCE4F5F4D2AFAF04F4
:01050A0022CE
:10050B00E4F591F59275A1FFF5A2439ADF4391F1C2
:07051B0043A1FC43D90322B8
:0505EC0012040580FE71
:10040500758E07438901758A80758CC1C28CD2A906
:10041500D28C438920758B60758D60C28ED2ABD22C
:100425008EE4F5C9F5C875CB83F5CAC2CAD2ADD27B
:04043500CAD2AF2256
:03000B000205D318
:0905D300758A80758CC1B2A0325A
:03001B000205F9E2
:0305F900B2A1327A
:03002B000205F1DA
:0505F100C2CFB29132FF
:0804C000C103C100C101C1022A
:0D05A40012056575A7AA3001FDC20180F6A1
:1002CA008E088F095391F343920C438F3075A550D2
:1002DA00AE08AF09E4FCFD7B407A42790FF81201BF
:1002EA0000AB0DAA0CA90BA80A12018B8FA6AE08A7
:1002FA00AF09E4FCFD7B407A42790FF8120100ABAA
:10030A000DAA0CA90BA80A12018B780812021D8FDC
:07031A00A443A810D2AF229A
:0F058600438F2075A58075A60143A810D2AF2220
:10056500438F1075A52F75A60143A58043A810D20A
:02057500AF22B3
:03002300020522B1
:10052200C0E0E5A630E30353A6F7E5A630E705539E
:07053200A67FD201D0E032E8
:0804C800C107C104C105C10612
:0D05B100120550759FAA3005FDC20580F6A9
:100321008E0E8F0F53A1FC43A203438FC0759D50C6
:10033100AE0EAF0FE4FCFD7B407A42790FF812015B
:1003410000AB13AA12A911A81012018B8F9EAE0E39
:10035100AF0FE4FCFD7B407A42790FF8120100AB4C
:1003610013AA12A911A81012018B780812021D8F6D
:070371009543A901D2AF2260
:0F059500438F80759D80759E0143A901D2AF22CF
:10055000438F40759D2F759E01439D8043A901D215
:05056000AF759FAA2207
:03003B0002053982
:10053900C0E0E59E30E303539EF7E59E30E705539F
:070549009E7FD205D0E032D5
:10024A00020378E493A3F8E493A34003F68001F24F
:10025A0008DFF48029E493A3F85407240CC8C333B5
:10026A00C4540F4420C8834004F456800146F6DF84
:10027A00E4800B01020408102040809004B0E47E60
:10028A00019360BCA3FF543F30E509541FFEE49379
:10029A00A360010ECF54C025E060A840B8E493A340
:1002AA00FAE493A3F8E493A3C8C582C8CAC583CA6B
:1002BA00F0A3C8C582C8CAC583CADFE9DEE780BE23
:0104D000002B
:10010000E88FF0A4CC8BF0A42CFCE98EF0A42CFC9E
:100110008AF0EDA42CFCEA8EF0A4CDA8F08BF0A41C
:100120002DCC3825F0FDE98FF0A42CCD35F0FCEB7B
:100130008EF0A4FEA9F0EB8FF0A4CFC5F02ECD3940
:0F014000FEE43CFCEAA42DCE35F0FDE43CFC22AD
:10014F0075F008758200EF2FFFEE33FECD33CDCC67
:10015F0033CCC58233C5829BED9AEC99E5829840EA
:10016F000CF582EE9BFEED9AFDEC99FC0FD5F0D6C7
:10017F00E4CEFBE4CDFAE4CCF9A88222B800C1B9F1
:10018F000059BA002DEC8BF084CFCECDFCE5F0CB2F
:10019F00F97818EF2FFFEE33FEED33FDEC33FCEB68
:1001AF0033FB10D703994004EB99FB0FD8E5E4F923
:1001BF00FA227818EF2FFFEE33FEED33FDEC33FC10
:1001CF00C933C910D7059BE99A4007EC9BFCE99A04
:1001DF00F90FD8E0E4C9FAE4CCFB2275F010EF2F49
:1001EF00FFEE33FEED33FDCC33CCC833C810D70749
:1001FF009BEC9AE899400AED9BFDEC9AFCE899F884
:0E020F000FD5F0DAE4CDFBE4CCFAE4C8F92216
:10021D00E8600FECC313FCED13FDEE13FEEF13FFBF
:03022D00D8F122E3
:00000001FF
