:03000000020230C9
:1002300078FFE4F6D8FD9000007F007E07E4F0A38D
:0A024000DFFCDEFA75812002028562
:1003210012043843CF1075EF0100000000000000F7
:1003310000E4702D7403146013146013146013141B
:100341006013146013240570180204E40204E90226
:1003510004EE0204F8020404E4FD7FFF7E1F120391
:020361009522E3
:0504E4001204D280FEAD
:0904D20075CE84D2AF43A90422C7
:03004B000204C6E6
:0C04C600C0E0E5CE20E602B281D0E032BA
:0304830001110064
:0504E9001203E480FE97
:1003E4005391F743920853A1FC43A203E4F5BA7571
:1003F400C60375BB08F5C743A80143A908D2AF22B9
:030003000204FDF7
:0304FD00B2813297
:030053000204A8FC
:0F04A800B28220A00375111020A103751120321C
:07048600020F0000010E004F
:100395008E088F098D0AAB0A7DFF1203BDAD0AAF2A
:1003A50009AE0812041F8F0EE4F5F4E50EB4FF0440
:0803B500B28280F7B28380F3ED
:1003BD008E0B8F0CC2AF8DF5E50B547FF5F3850CCD
:1003CD00F28BF475F1F075F60600000000000000E8
:0703DD0000E4F5F4D2AF22A9
:10041F00C2AF8DF4E5102FF582E50F3EF583E4931F
:08042F00FCE4F5F4D2AFAF04C8
:0104370022A2
:10043800759AFFE4F59BF591F592F5A175A2FF4336
:090448009A3C43912243A1F022E9
:0504EE0012036380FE13
:10036300758E07438901758A80758CC1C28CD2A9A9
:10037300D28C438920758B60758D60C28ED2ABD2CF
:100383008EE4F5C875CB83F5CAC2CAD2ADD2CAD240
:02039300AF2297
:03000B000204DB11
:0904DB00758A80758CC1B2823271
:03001B00020500DB
:03050000B2833291
:03002B000204F3D9
:0504F300C2CFB284320B
:0504F80012045180FE1A
:10045100E4F5D175D20F75D36375D53275D616759E
:09046100D73275D41643D2802273
:08048D00C101C100C102C1035D
:10040400E4750D80750C25F50BF50A7F0CFE1202C0
:0B041400CA759FAA3001FDC20180F6EE
:1002CA008E088F095391F543920A438FC0759D504A
:1002DA00AE08AF09E4FCFD7B407A42790FF81201BF
:1002EA0000AB0DAA0CA90BA80A12018B8F9EAE08AF
:1002FA00AF09E4FCFD7B407A42790FF8120100ABAA
:10030A000DAA0CA90BA80A12018B780812021D8FDC
:07031A009543A901D2AF22B7
:0F04B700438F80759D80759E0143A901D2AF22AE
:10049600438F40759D2F759E01439D8043A901D2D0
:0204A600AF2283
:03003B0002046A52
:10046A00C0E0E59D30E105539DFDD201E59D30E0F8
:09047A0005539DFED200D0E032D2
:10024A00020321E493A3F8E493A34003F68001F2A6
:10025A0008DFF48029E493A3F85407240CC8C333B5
:10026A00C4540F4420C8834004F456800146F6DF84
:10027A00E4800B0102040810204080900483E47E8D
:10028A00019360BCA3FF543F30E509541FFEE49379
:10029A00A360010ECF54C025E060A840B8E493A340
:1002AA00FAE493A3F8E493A3C8C582C8CAC583CA6B
:1002BA00F0A3C8C582C8CAC583CADFE9DEE780BE23
:010495000066
:10010000E88FF0A4CC8BF0A42CFCE98EF0A42CFC9E
:100110008AF0EDA42CFCEA8EF0A4CDA8F08BF0A41C
:100120002DCC3825F0FDE98FF0A42CCD35F0FCEB7B
:100130008EF0A4FEA9F0EB8FF0A4CFC5F02ECD3940
:0F014000FEE43CFCEAA42DCE35F0FDE43CFC22AD
:10014F0075F008758200EF2FFFEE33FECD33CDCC67
:10015F0033CCC58233C5829BED9AEC99E5829840EA
:10016F000CF582EE9BFEED9AFDEC99FC0FD5F0D6C7
:10017F00E4CEFBE4CDFAE4CCF9A88222B800C1B9F1
:10018F000059BA002DEC8BF084CFCECDFCE5F0CB2F
:10019F00F97818EF2FFFEE33FEED33FDEC33FCEB68
:1001AF0033FB10D703994004EB99FB0FD8E5E4F923
:1001BF00FA227818EF2FFFEE33FEED33FDEC33FC10
:1001CF00C933C910D7059BE99A4007EC9BFCE99A04
:1001DF00F90FD8E0E4C9FAE4CCFB2275F010EF2F49
:1001EF00FFEE33FEED33FDCC33CCC833C810D70749
:1001FF009BEC9AE899400AED9BFDEC9AFCE899F884
:0E020F000FD5F0DAE4CDFBE4CCFAE4C8F92216
:10021D00E8600FECC313FCED13FDEE13FEEF13FFBF
:03022D00D8F122E3
:00000001FF
