:03000000020100FA
:1001000078FFE4F6D8FD9000007F007E07E4F0A3BE
:0A011000DFFCDEFA758120020155C4
:1001F8001203CB43CF10E47045B40900504090027D
:100208000DF828287302022802022B02022E02028D
:100218003102023402023702024602023A02023D69
:1002280002044E02045302045802019A02046202B4
:0F02380004170202B0E4FD7FFF7E1F1202D822DE
:0603E40002100000C1023E
:1002B000E4FFFE12027C43AD403002FDC202AFAF4C
:1002C000EF75F010A4FFAEF0E5AEC4540F7C002F24
:0802D000F511EC3EF51080DE93
:10027C00EF4480F5ADC3EF9408EE9400500F740179
:10028C00A807088002C333D8FCF5AB8011EF24F823
:10029C00FF7401A807088002C333D8FCF5AC43A84F
:0402AC0040D2AF226B
:0300330002044282
:0604420053ADEFD20232BF
:05044E0012043080FEE5
:0904300075CE84D2AF43A9042269
:03004B0002042488
:0C042400C0E0E5CE20E602B281D0E0325C
:0303EA00011200FD
:0504530012039280FE7F
:100392005391F743920853A1FC43A203E4F5BA75C3
:1003A200C63075BB08F5C743A80143A908D2AF22DE
:030003000204678D
:03046700B282322C
:030053000203F9AC
:0F03F900B28420A00375121020A10375122032C8
:0703ED00020E0000010D00EB
:1002D8008E088F098D0AAB0A7DFF120300AD0AAFA5
:1002E80009AE081203B28F0DE4F5F4E50DB4FF046E
:0802F800B28280F7B28380F3AB
:100300008E0B8F0CC2AF8DF5E50B547FF5F3850C8A
:10031000F28BF475F1F075F60600000000000000A5
:0703200000E4F5F4D2AF2266
:1003B200C2AF8DF4E50F2FF582E50E3EF583E4938F
:0803C200FCE4F5F4D2AFAF0436
:0103CA002210
:1003CB00759AFFE4F59BF591F592F5A175A2FF43A4
:0903DB009AF043913043A1CC22B9
:0504580012024780FEC6
:10024700758E07438901758A40758CA2C28CD2A925
:10025700D28C438920758B10758D10C28ED2ABD28C
:100267008EE4F5C9F5C875CB4475CA80C2CAD2AD4C
:05027700D2CAD2AF2243
:03000B00020439B3
:09043900758A40758CA2B2823272
:03001B0002046A72
:03046A00B2833228
:03002B0002045D6F
:05045D00C2CFB28432A1
:0403F400C100C10182
:0D0417001203707599553000FDC20080F68B
:100370005391F343920C759850438780E4F5C87508
:100380008920758E02758BD9758DD9D28ED2ACD25B
:02039000AF229A
:03002300020408CC
:0F040800309904C299D200309804C298D20132C0
:0504620012032780FEDB
:10032700E4F5D275D107F5D475D36375D53275D693
:100337001975D70A75DD3275DE1975DF0A43D28064
:0603470043A902D2AF221F
:0300430002046D47
:03046D00B2823226
:10019A00439A1F539BE043801F7FFE1204481203B9
:1001AA004D7FFD12044812034D7FFB1204481203CF
:1001BA004D7FF712044812034D7FEF1204481203D1
:1001CA004D5380E07FFE12044812034D7FFD120456
:1001DA004812034D7FFB12044812034D7FF71204A5
:0E01EA004812034D7FEF12044812034D80A807
:060448008F9C438F0C2283
:04034D007F647E004B
:10035100E4FDFCD3EF9400EE94004007EF1F70F32F
:0E0361001E80F00DBD00010CED64644C70E5D3
:01036F00226B
:10011A000201F8E493A3F8E493A34003F68001F202
:10012A0008DFF48029E493A3F85407240CC8C333E6
:10013A00C4540F4420C8834004F456800146F6DFB5
:10014A00E4800B01020408102040809003E4E47E5E
:10015A00019360BCA3FF543F30E509541FFEE493AA
:10016A00A360010ECF54C025E060A840B8E493A371
:10017A00FAE493A3F8E493A3C8C582C8CAC583CA9C
:10018A00F0A3C8C582C8CAC583CADFE9DEE780BE54
:0103F8000004
:00000001FF
