:0F007A0075F60BE4F592F59175B25575B15522F7
:10000300E4FFFEE4FDFC0DBD00010CBC02F8BDBC29
:0C001300F50FBF00010EBE02EABFBCE703
:01001F0022BE
:0500B000D295D294225C
:09009500D295D294C295C29422C6
:10005200E4FEEF25E0FFC2949295D2940EBE08F220
:04006200C294D295DD
:010066002277
:10002000C294E4FED294EF25E0FDA295E4334DFFA7
:08003000C2940EBE08EED29549
:0100380022A5
:09009E00C294C295D294D29522BD
:0900A700C295D294C294D29522B4
:10006700D29430950BE509C394015004050980F239
:02007700C29431
:010079002264
:10003900E4F50812007A1200B01200957F0212004E
:090049005212006712009E80F0C3
:0300000002008972
:0C008900787FE4F6D8FD7581090200398B
:00000001FF
