:03000000020241B8
:1002410078FFE4F6D8FD9000007F007E03E4F0A380
:0A025100DFFCDEFA75812C02029634
:1002DB00E4F521F52212072143CF1075EF01000041
:1002EB000000000000007E007F02E4704FEFB40AB4
:1002FB00005049900305F8282873020323020326B4
:10030B0002032902032C02032F02033202033502DC
:10031B00033802033B02034402079F0207A40207B0
:10032B00A90203A80207B30206D40206B90205CD3F
:0C033B007D027F7F7E0002062112040676
:010347002293
:1004060053EFBF7D557CAA7FAA7E551205A07F7249
:100416007E557DFF7C38AB0FAA0EA90DA80CC31222
:10042600021D7002C2A07527AA7528557F007E5549
:100436007DAA7CFF1204B87F407E807D017C00ABE4
:100446000BAA0AA909A808C312021D70B3E515B4C0
:0B045600C0AEE514B43FA9D2A080A501
:0605730002190000C106A0
:1005CD007D047F037E0012050843AD403006FDC259
:1005DD0006AFAFEF75F010A4FFAEF0E5AEC4540F4B
:0B05ED007C002FF51AEC3EF51980DEB3
:10050800EF4480F5ADC3EF9408EE9400500F7401EA
:10051800A807088002C333D8FCF5AB8011EF24F894
:10052800FF7401A807088002C333D8FCF5AC8DAA74
:0605380043A840D2AF22EF
:030033000207932E
:0607930053ADDFD2063277
:05079F0012078180FE3D
:0907810075CE85D2AF43A9042214
:03004B0002077534
:0C077500C0E0E5CE20E602B2A0D0E032E9
:03057900011B0063
:0507A40012067080FE4A
:100670005391374392C853A1FC43A203E4F5BA75E2
:10068000BC0C75C63075BB08F5BD75C73043A805F1
:0606900043A908D2AF22CD
:030003000207B839
:0307B800B2A432B6
:0300130002074899
:0F074800B2A5209603751B10209703751B203256
:030053000207BBE6
:0307BB00B2A632B1
:07057C000217000001160048
:100621008E238F248D25AB257DFF120649AD25AF85
:1006310024AE231206EF8F16E4F5F4E516B4FF0499
:08064100B2A080F7B2A180F322
:100649008E268F27C2AF8DF5E526547FF5F38527D2
:10065900F28BF475F1F075F6060000000000000059
:0706690000E4F5F4D2AF221A
:1006EF00C2AF8DF4E5182FF582E5173EF583E4933D
:0806FF00FCE4F5F4D2AFAF04F6
:0107070022CF
:10072100E4F59AF59BF5917592FF75A1FFF5A27518
:05073100D9FFF5DA22FA
:08058300C101C100C102C10366
:1006B900E4752880752725F526F5257F0CFE12049B
:0B06C90061759FAA3001FDC20180F6A0
:100461008E238F2453A1FC43A203438FC0759D505B
:10047100AE23AF24E4FCFD7B407A42790FF81201F0
:1004810000AB28AA27A926A82512018B8F9EAE238F
:10049100AF24E4FCFD7B407A42790FF8120100ABF6
:1004A10028AA27A926A82512018B780812022E8FC7
:0704B1009543A901D2AF221F
:0F075700438F80759D80759E0143A901D2AF220B
:10073600438F40759D2F759E01439D8043A901D22D
:02074600AF22E0
:03003B00020708B1
:10070800C0E0E59D30E105539DFDD201E59D30E057
:0907180005539DFED200D0E03231
:0507A90012053E80FE78
:10053E00758E07438901758A40758CA2C28CD2A92B
:10054E00D28C438920758B10758D10C28ED2ABD292
:10055E008EE4F5C9F5C875CB4475CA80C2CAD2AD52
:05056E00D2CAD2AF2249
:03000B0002078A5F
:09078A00758A40758CA2B2A432FC
:03001B000207BE1B
:0307BE00B2A532AF
:03002B000207AE1B
:0507AE00C2CFB2A6322B
:04058B00C104C105E1
:1006D400E4752880752725F526F5257F0CFE120381
:0B06E400487599553004FDC20480F6F3
:100348008E238F245391F343920C439850438E028B
:10035800438920438780AE23AF24E4FCFD7B407AA9
:1003680042790FF8120100AB28AA27A926A825125E
:10037800018B780812022E8F8DAE23AF24E4FCFD8A
:100388007B407A42790FF8120100AB28AA27A926E8
:10039800A82512018B8F8BC28EC2ABD2ACD2AF22F2
:030023000207666B
:0F076600309904C299D204309804C298D2053257
:1003A800439A1F539BE043801F7FFE120799120652
:1003B800967FFD1207991206967FFB12079912067F
:1003C800967FF71207991206967FEF120799120681
:1003D800965380E07FFE1207991206967FFD12075A
:1003E800991206967FFB1207991206967FF7120755
:0E03F800991206967FEF12079912069680A8BA
:060799008F9C438F0C222F
:040696007F647E00FF
:10069A00E4FDFCD3EF9400EE94004007EF1F70F3E3
:0E06AA001E80F00DBD00010CED64644C70E587
:0106B800221F
:0507B3001205F880FEB4
:1005F800E4F5D175D23F75D4EA75D34F75D5287512
:10060800D62875D728F5DC75DD1475DE1475DF146A
:0906180043D28043A902D2AF22B3
:030043000207C1F0
:0307C100B28732CA
:10058F00040C00000000040800000000021400002A
:1005A0008FE98EEA8DED8CEE43EF80E5EF20E7FBDF
:1005B00085E91385EA1285EB1185EC10AF13AE12B5
:0D05C000AD11AC108F0F8E0E8D0D8C0C2226
:1004B8008F2C8E2B8D2A8C29852CE9852BEA852A71
:1004C800EB8529EC8528EDE527F5EE43EFC0E5EF50
:1004D80020E7FB85E91385EA1285EB1185EC10AF5F
:1004E800EEEFFEADED7C00E42DF515EC3EF514AF16
:0F04F80013AE12AD11AC108F0B8E0A8D098C084C
:0105070022D1
:10025B000202DBE493A3F8E493A34003F68001F2DC
:10026B0008DFF48029E493A3F85407240CC8C333A4
:10027B00C4540F4420C8834004F456800146F6DF73
:10028B00E4800B0102040810204080900573E47E8B
:10029B00019360BCA3FF543F30E509541FFEE49368
:1002AB00A360010ECF54C025E060A840B8E493A32F
:1002BB00FAE493A3F8E493A3C8C582C8CAC583CA5A
:1002CB00F0A3C8C582C8CAC583CADFE9DEE780BE12
:01059F00005B
:10010000E88FF0A4CC8BF0A42CFCE98EF0A42CFC9E
:100110008AF0EDA42CFCEA8EF0A4CDA8F08BF0A41C
:100120002DCC3825F0FDE98FF0A42CCD35F0FCEB7B
:100130008EF0A4FEA9F0EB8FF0A4CFC5F02ECD3940
:0F014000FEE43CFCEAA42DCE35F0FDE43CFC22AD
:10014F0075F008758200EF2FFFEE33FECD33CDCC67
:10015F0033CCC58233C5829BED9AEC99E5829840EA
:10016F000CF582EE9BFEED9AFDEC99FC0FD5F0D6C7
:10017F00E4CEFBE4CDFAE4CCF9A88222B800C1B9F1
:10018F000059BA002DEC8BF084CFCECDFCE5F0CB2F
:10019F00F97818EF2FFFEE33FEED33FDEC33FCEB68
:1001AF0033FB10D703994004EB99FB0FD8E5E4F923
:1001BF00FA227818EF2FFFEE33FEED33FDEC33FC10
:1001CF00C933C910D7059BE99A4007EC9BFCE99A04
:1001DF00F90FD8E0E4C9FAE4CCFB2275F010EF2F49
:1001EF00FFEE33FEED33FDCC33CCC833C810D70749
:1001FF009BEC9AE899400AED9BFDEC9AFCE899F884
:0E020F000FD5F0DAE4CDFBE4CCFAE4C8F92216
:10021D00EB9FF5F0EA9E42F0E99D42F0E89C45F037
:01022D0022AE
:10022E00E8600FECC313FCED13FDEE13FEEF13FFAE
:03023E00D8F122D2
:00000001FF
